:100000000C942A000C9447000C9447000C94470071
:100010000C9447000C9447000C9447000C94470044
:100020000C9447000C9447000C94210E0C9447004C
:100030000C9447000C9447000C9447000C94470024
:100040000C9447000C9447000C9447000C94470014
:100050000C94470011241FBECFE5D8E0DEBFCDBF12
:1000600010E0A0E6B0E0EAE8FEE102C005900D92E3
:10007000A838B107D9F710E0A8E8B0E001C01D9298
:10008000AA38B107E1F70E94EA0C0C94430F0C94D4
:100090000000EF92FF920F931F937B018C0120E0F1
:1000A00030E040E05FE40E94490388238CF0C801FF
:1000B000B70120E030E040E05FE40E94C1010E940F
:1000C000A9039B01AC01205030404040504806C07D
:1000D000C801B7010E94A9039B01AC01B901CA0183
:1000E0001F910F91FF90EF900895A0E0B0E0EBE733
:1000F000F0E00C940C0FDC012B01FA019C91923082
:1001000008F439C1EB018881823008F433C194309E
:1001100069F4843009F02FC111969C91119789815F
:10012000981709F428C1A0E7B0E025C1843009F48C
:1001300021C18230A9F4923009F01DC19A01AD01AC
:1001400088E0EA010990AE01E90109929E0181501F
:10015000C1F7E201898111969C918923818308C1AD
:10016000923009F407C112962D903C901397EB0141
:100170008A819B811496AD90BD90CD90DC901797AD
:10018000EC80FD800E811F819101281B390BB90184
:1001900037FF04C066277727621B730B6032710537
:1001A0000CF061C0121613066CF537014801062EDB
:1001B00004C096948794779467940A94D2F721E0C8
:1001C00030E040E050E004C0220F331F441F551FB1
:1001D0006A95D2F721503040404050402E213F21B7
:1001E00040235123211531054105510521F021E01E
:1001F00030E040E050E079018A01E628F72808293C
:1002000019293CC0232BD1F1260E371E350146019A
:10021000062E04C096948794779467940A94D2F734
:1002200021E030E040E050E004C0220F331F441FC3
:10023000551F6A95D2F721503040404050402A2146
:100240003B214C215D21211531054105510521F04E
:1002500021E030E040E050E059016A01A628B728CB
:10026000C828D9280BC0821593052CF01C01AA249C
:10027000BB24650103C0EE24FF24870111969C91E5
:10028000D20111968C91981709F445C0992339F041
:10029000A80197012A193B094C095D0906C0A6016E
:1002A00095012E193F09400B510B57FD08C01182D3
:1002B0003382228224833583468357831DC081E0A5
:1002C00081833382228288279927DC01821B930B4A
:1002D000A40BB50B84839583A683B7830DC0220F2F
:1002E000331F441F551F24833583468357838281E0
:1002F000938101979383828324813581468157813D
:10030000DA01C9010197A109B1098F5F9F4FAF4F72
:10031000BF4328F30BC0918333822282EA0CFB1C7B
:100320000C1D1D1DE482F5820683178383E0808304
:10033000248135814681578157FF1AC0C901AA27F8
:1003400097FDA095BA2F81709070A070B0705695EF
:10035000479537952795822B932BA42BB52B848318
:100360009583A683B7838281938101969383828349
:10037000DF0101C0D201CD01CDB7DEB7E2E10C94BF
:10038000280FA0E2B0E0E7ECF1E00C94180F6983CD
:100390007A838B839C832D833E834F835887E9E048
:1003A000EE2EF12CEC0EFD1ECE010196B7010E943F
:1003B000D2048E010F5E1F4FCE010596B8010E9438
:1003C000D2048A8991E089278A8BC701B801AE01DE
:1003D000475E5F4F0E9475000E94FD03A096E6E015
:1003E0000C94340FA0E2B0E0E8EFF1E00C94180FA9
:1003F00069837A838B839C832D833E834F835887C5
:10040000F9E0EF2EF12CEC0EFD1ECE010196B701A6
:100410000E94D2048E010F5E1F4FCE010596B801D7
:100420000E94D204C701B801AE01475E5F4F0E942F
:1004300075000E94FD03A096E6E00C94340FA0E244
:10044000B0E0E5E2F2E00C940C0F69837A838B83D1
:100450009C832D833E834F835887CE010196BE0136
:10046000675F7F4F0E94D204CE010596BE016F5E8A
:100470007F4F0E94D2049985923088F0898982301A
:10048000C8F0943019F4823051F404C0843029F457
:10049000923081F480E790E0C6C0923049F420E0C9
:1004A0009A858A89981321E02A87CE010996BBC0D4
:1004B000823049F420E09A858A89981321E02A8BBA
:1004C000CE014196B0C02D843E844F8458886D88FB
:1004D0007E888F88988CEE24FF248701AA24BB2471
:1004E000650140E050E060E070E0E0E0F0E0C10174
:1004F00081709070892BE9F0E60CF71C081D191D1E
:100500009A01AB012A0D3B1D4C1D5D1D80E090E062
:10051000A0E0B0E0E614F7040805190520F481E036
:1005200090E0A0E0B0E0BA01A901480F591F6A1F8E
:100530007B1FAA0CBB1CCC1CDD1C97FE08C081E0F5
:1005400090E0A0E0B0E0A82AB92ACA2ADB2A3196B6
:10055000E032F10549F0660C771C881C991C569412
:10056000479437942794C3CFFA85EA892B893C892D
:100570008B859C85280F391F2E5F3F4F17C0CA01FE
:1005800081709070892B61F016950795F794E79428
:1005900080E090E0A0E0B0E8E82AF92A0A2B1B2BC3
:1005A00076956795579547952F5F3F4F77FDE7CF36
:1005B0000CC0440F551F661F771F17FD4160EE0CDE
:1005C000FF1C001F111F21503040403090E05907A0
:1005D00090E0690790E4790760F32B8F3C8FDB0193
:1005E000CA018F779070A070B07080349105A1051A
:1005F000B10561F447FD0AC0E114F10401051105DC
:1006000029F0405C5F4F6F4F7F4F40781A8EFE1786
:1006100011F081E08A8F4D8F5E8F6F8F78A383E01A
:10062000898FCE0149960E94FD03A096E2E10C94C9
:10063000280FA8E1B0E0EFE1F3E00C94180F698314
:100640007A838B839C832D833E834F83588789E0F5
:10065000E82EF12CEC0EFD1ECE010196B7010E9492
:10066000D2048E010F5E1F4FCE010596B8010E9485
:10067000D2048985823040F08989823028F0C70110
:10068000B8010E944A0501C08FEF6896E6E00C941D
:10069000340FA8E1B0E0EFE4F3E00C94180F6983A5
:1006A0007A838B839C832D833E834F83588789E095
:1006B000E82EF12CEC0EFD1ECE010196B7010E9432
:1006C000D2048E010F5E1F4FCE010596B8010E9425
:1006D000D2048985823040F08989823028F0C701B0
:1006E000B8010E944A0501C08FEF6896E6E00C94BD
:1006F000340FA8E1B0E0EFE7F3E00C94180F698342
:100700007A838B839C832D833E834F83588789E034
:10071000E82EF12CEC0EFD1ECE010196B7010E94D1
:10072000D2048E010F5E1F4FCE010596B8010E94C4
:10073000D2048985823040F08989823028F0C7014F
:10074000B8010E944A0501C081E06896E6E00C9479
:10075000340FACE0B0E0EFEAF3E00C941C0F6983D7
:100760007A838B839C83CE010196BE016B5F7F4FA2
:100770000E94D2048D81823061F1823050F1843048
:1007800021F48E81882351F12EC02F81388537FDC9
:1007900020C06E812F3131051CF06623F9F023C093
:1007A0008EE190E0821B930B29853A854B855C8511
:1007B00004C056954795379527958A95D2F76623B5
:1007C000B1F050954095309521953F4F4F4F5F4F79
:1007D0000EC020E030E040E050E009C02FEF3FEFD6
:1007E0004FEF5FE704C020E030E040E050E8B9019F
:1007F000CA012C96E2E00C94380FDF92EF92FF9240
:100800000F931F93FC01E480F58006811781D1804E
:100810008081823048F480E090E0A0E1B0E0E82AF6
:10082000F92A0A2B1B2BA5C0843009F49FC0823003
:1008300021F4EE24FF24870105C0E114F104010531
:10084000110519F4E0E0F0E096C0628173819FEF3A
:10085000623879070CF05BC022E83FEF261B370BAC
:100860002A3131052CF020E030E040E050E02AC091
:10087000B801A701022E04C0769567955795479554
:100880000A94D2F781E090E0A0E0B0E004C0880FC5
:10089000991FAA1FBB1F2A95D2F70197A109B10979
:1008A0008E219F21A023B1230097A105B10521F03E
:1008B00081E090E0A0E0B0E09A01AB01282B392B59
:1008C0004A2B5B2BDA01C9018F779070A070B07052
:1008D00080349105A105B10539F427FF09C0205CDA
:1008E0003F4F4F4F5F4F04C0215C3F4F4F4F5F4F13
:1008F000E0E0F0E02030A0E03A07A0E04A07A0E402
:100900005A0710F0E1E0F0E079018A0127C0603871
:10091000710564F5FB01E158FF4FD801C7018F77DE
:100920009070A070B07080349105A105B10539F4C4
:10093000E7FE0DC080E490E0A0E0B0E004C08FE3EB
:1009400090E0A0E0B0E0E80EF91E0A1F1B1F17FFA1
:1009500005C016950795F794E794319687E01695AC
:100960000795F794E7948A95D1F705C0EE24FF2404
:100970008701EFEFF0E06E2F679566276795902F60
:100980009F77D794DD24D7948E2F8695492F462BB9
:10099000582F5D29B701CA011F910F91FF90EF9069
:1009A000DF900895FC01DB01408151812281622F9B
:1009B0006F7770E0221F2227221F9381892F880FD3
:1009C000822B282F30E0991F9927991F11969C930D
:1009D000119721153105A9F54115510561057105DD
:1009E00011F482E037C082E89FEF13969C938E93B8
:1009F00012979A01AB0167E0220F331F441F551F66
:100A00006A95D1F783E08C930DC0220F331F441FEA
:100A1000551F12968D919C911397019713969C9355
:100A20008E931297203080E0380780E0480780E4FA
:100A3000580758F314962D933D934D935C93179755
:100A400008952F3F310579F4411551056105710570
:100A500019F484E08C93089564FF03C081E08C93C3
:100A600012C01C9210C02F57304013963C932E9307
:100A7000129783E08C9387E0440F551F661F771F02
:100A80008A95D1F7706414964D935D936D937C9322
:100A9000179708951F93DC01FB019C91923008F495
:100AA00047C08081823008F443C0943051F41196DD
:100AB0001C91843099F58181682F70E0611B710968
:100AC0003FC0843021F0923031F48230B9F181811D
:100AD000882389F12DC011961C9111978230F1F075
:100AE00081811817D9F412962D913C911397828128
:100AF00093818217930794F028173907BCF0149656
:100B00008D919D910D90BC91A02D248135814681C0
:100B10005781281739074A075B0718F4112341F05A
:100B20000AC082179307A407B50740F4112319F0F0
:100B300061E070E005C06FEF7FEF02C060E070E041
:100B4000CB011F910895DF93CF93CDB7DEB72F97D9
:100B50000FB6F894DEBF0FBECDBF8F8782E060E096
:100B600040E00E94070982E061E040E00E9407093E
:100B700080E06F850E940F0A82E062E041E00E94FF
:100B8000070980E090E0A0E0B0E48B879C87AD8708
:100B9000BE876B857C858D859E8520E030E04AEFA1
:100BA00054E40E941F02DC01CB018F839887A98740
:100BB000BA876F81788589859A8520E030E040E8A2
:100BC0005FE30E94790388232CF481E090E09E8308
:100BD0008D833FC06F81788589859A8520E03FEFBE
:100BE0004FE757E40E94190318164CF56B857C8576
:100BF0008D859E8520E030E040E251E40E941F0296
:100C0000DC01CB01BC01CD010E944900DC01CB011C
:100C10009E838D830FC088EC90E09C838B838B81B7
:100C20009C810197F1F79C838B838D819E81019735
:100C30009E838D838D819E81009769F714C06F819B
:100C4000788589859A850E944900DC01CB019E83C5
:100C50008D838D819E819A83898389819A81019771
:100C6000F1F79A83898382E062E040E00E940709FD
:100C70002F960FB6F894DEBF0FBECDBFCF91DF9198
:100C80000895DF93CF93CDB7DEB72F970FB6F894C3
:100C9000DEBF0FBECDBF8F8782E060E041E00E94E3
:100CA000070982E061E040E00E94070980E06F856B
:100CB0000E940F0A82E062E041E00E94070980E0A2
:100CC00090E0A0E0B0E48B879C87AD87BE876B8502
:100CD0007C858D859E8520E030E04AEF54E40E94BB
:100CE0001F02DC01CB018F839887A987BA876F81A8
:100CF000788589859A8520E030E040E85FE30E94AE
:100D0000790388232CF481E090E09E838D833FC09B
:100D10006F81788589859A8520E03FEF4FE757E41A
:100D20000E94190318164CF56B857C858D859E8570
:100D300020E030E040E251E40E941F02DC01CB01E0
:100D4000BC01CD010E944900DC01CB019E838D8353
:100D50000FC088EC90E09C838B838B819C810197F2
:100D6000F1F79C838B838D819E8101979E838D8378
:100D70008D819E81009769F714C06F817885898580
:100D80009A850E944900DC01CB019E838D838D8171
:100D90009E819A83898389819A810197F1F79A8349
:100DA000898382E062E040E00E9407092F960FB637
:100DB000F894DEBF0FBECDBFCF91DF910895DF93D2
:100DC000CF93CDB7DEB72E970FB6F894DEBF0FBE28
:100DD000CDBF80E090E0A0E2B2E48B879C87AD8736
:100DE000BE876B857C858D859E8520E030E04AEF4F
:100DF00054E40E941F02DC01CB018F839887A987EE
:100E0000BA876F81788589859A8520E030E040E84F
:100E10005FE30E94790388232CF481E090E09E83B5
:100E20008D833FC06F81788589859A8520E03FEF6B
:100E30004FE757E40E94190318164CF56B857C8523
:100E40008D859E8520E030E040E251E40E941F0243
:100E5000DC01CB01BC01CD010E944900DC01CB01CA
:100E60009E838D830FC088EC90E09C838B838B8165
:100E70009C810197F1F79C838B838D819E810197E3
:100E80009E838D838D819E81009769F714C06F8149
:100E9000788589859A850E944900DC01CB019E8373
:100EA0008D838D819E819A83898389819A8101971F
:100EB000F1F79A83898388E30E94A3058CE00E945E
:100EC000A30581E00E94A3052E960FB6F894DEBF1D
:100ED0000FBECDBFCF91DF910895DF93CF9300D0A8
:100EE0000F92CDB7DEB79B838A8319820EC08981AA
:100EF000282F30E08A819B81FC01E20FF31F808163
:100F00000E94410689818F5F89838981282F30E083
:100F10008A819B81FC01E20FF31F8081882339F7CE
:100F20000F900F900F90CF91DF910895DF93CF93A3
:100F300000D00F92CDB7DEB78A836B838A81882376
:100F400019F48B81898306C08A81813019F48B81E1
:100F5000805C8983898180580E94A3050F900F903F
:100F60000F90CF91DF910895DF93CF93CDB7DEB788
:100F700081E00E94A305CF91DF910895DF93CF9385
:100F8000CDB7DEB727970FB6F894DEBF0FBECDBF43
:100F900089836A834B838981843008F0EEC08A811B
:100FA000883008F0EAC08B81813009F06FC08981F8
:100FB000282F30E03F832E838E819F8181309105E1
:100FC00049F12E813F81223031052CF48E819F81A1
:100FD000009761F0D2C02E813F812230310571F13E
:100FE0008E819F8183309105E9F1C7C0AAE3B0E00B
:100FF000EAE3F0E08081482F8A81282F30E081E009
:1010000090E0022E02C0880F991F0A94E2F7842B09
:101010008C93B3C0A7E3B0E0E7E3F0E08081482F12
:101020008A81282F30E081E090E0022E02C0880FF4
:10103000991F0A94E2F7842B8C939FC0A4E3B0E03D
:10104000E4E3F0E08081482F8A81282F30E081E0BE
:1010500090E0022E02C0880F991F0A94E2F7842BB9
:101060008C938BC0A1E3B0E0E1E3F0E08081482FF6
:101070008A81282F30E081E090E0022E02C0880FA4
:10108000991F0A94E2F7842B8C9377C08B81882375
:1010900009F073C08981282F30E03D832C838C8137
:1010A0009D818130910559F12C813D81223031059E
:1010B0002CF48C819D81009769F05FC02C813D816B
:1010C0002230310589F18C819D818330910509F4AD
:1010D00040C053C0AAE3B0E0EAE3F0E08081482FCB
:1010E0008A81282F30E081E090E0022E02C0880F34
:1010F000991F0A94E2F7809584238C933EC0A7E35E
:10110000B0E0E7E3F0E08081482F8A81282F30E0CB
:1011100081E090E0022E02C0880F991F0A94E2F746
:10112000809584238C9329C0A4E3B0E0E4E3F0E04D
:101130008081482F8A81282F30E081E090E0022EC4
:1011400002C0880F991F0A94E2F7809584238C933C
:1011500014C0A1E3B0E0E1E3F0E08081482F8A8190
:10116000282F30E081E090E0022E02C0880F991F06
:101170000A94E2F7809584238C9327960FB6F8940F
:10118000DEBF0FBECDBFCF91DF910895DF93CF9328
:1011900000D000D0CDB7DEB789836A838981282F3C
:1011A00030E03C832B838B819C8181309105D1F091
:1011B0002B813C81223031052CF48B819C8100975E
:1011C00061F01EC02B813C812230310581F08B8182
:1011D0009C818330910581F013C0EAE3F0E08A81BD
:1011E00080830EC0E7E3F0E08A81808309C0E4E3F6
:1011F000F0E08A81808304C0E1E3F0E08A818083AB
:101200000F900F900F900F90CF91DF910895DF9383
:10121000CF93CDB7DEB727970FB6F894DEBF0FBEDA
:10122000CDBF89836A834B838981843008F0EEC007
:101230008A81883008F0EAC08B81813009F06FC064
:101240008981282F30E03F832E838E819F818130DA
:10125000910549F12E813F81223031052CF48E8198
:101260009F81009761F0D2C02E813F8122303105ED
:1012700071F18E819F8183309105E9F1C7C0ABE3A5
:10128000B0E0EBE3F0E08081482F8A81282F30E046
:1012900081E090E0022E02C0880F991F0A94E2F7C5
:1012A000842B8C93B3C0A8E3B0E0E8E3F0E0808146
:1012B000482F8A81282F30E081E090E0022E02C082
:1012C000880F991F0A94E2F7842B8C939FC0A5E3A3
:1012D000B0E0E5E3F0E08081482F8A81282F30E0FC
:1012E00081E090E0022E02C0880F991F0A94E2F775
:1012F000842B8C938BC0A2E3B0E0E2E3F0E080812A
:10130000482F8A81282F30E081E090E0022E02C031
:10131000880F991F0A94E2F7842B8C9377C08B81F6
:10132000882309F073C08981282F30E03D832C8306
:101330008C819D818130910559F12C813D81223034
:1013400031052CF48C819D81009769F05FC02C8160
:101350003D812230310589F18C819D818330910559
:1013600009F440C053C0ABE3B0E0EBE3F0E08081B0
:10137000482F8A81282F30E081E090E0022E02C0C1
:10138000880F991F0A94E2F7809584238C933EC0BE
:10139000A8E3B0E0E8E3F0E08081482F8A81282FBD
:1013A00030E081E090E0022E02C0880F991F0A947D
:1013B000E2F7809584238C9329C0A5E3B0E0E5E3B0
:1013C000F0E08081482F8A81282F30E081E090E092
:1013D000022E02C0880F991F0A94E2F78095842399
:1013E0008C9314C0A2E3B0E0E2E3F0E08081482FE8
:1013F0008A81282F30E081E090E0022E02C0880F21
:10140000991F0A94E2F7809584238C9327960FB650
:10141000F894DEBF0FBECDBFCF91DF910895DF936B
:10142000CF9300D000D0CDB7DEB789836A8389819E
:10143000282F30E03C832B838B819C818130910568
:10144000D1F02B813C81223031052CF48B819C81A1
:10145000009761F01EC02B813C812230310581F064
:101460008B819C818330910581F013C0EBE3F0E028
:101470008A8180830EC0E8E3F0E08A81808309C01E
:10148000E5E3F0E08A81808304C0E2E3F0E08A8152
:1014900080830F900F900F900F90CF91DF91089560
:1014A000DF93CF9300D000D00F92CDB7DEB78A8301
:1014B0006B838A81843008F06BC08B81883008F0A0
:1014C00067C08A81282F30E03D832C834C815D8169
:1014D0004130510541F18C819D818230910534F478
:1014E0002C813D812115310561F052C04C815D8117
:1014F0004230510551F18C819D8183309105B9F1C4
:1015000047C0E9E3F0E08081282F30E08B81882F0D
:1015100090E0A90102C0559547958A95E2F7CA0166
:101520008170898335C0E6E3F0E08081282F30E0C8
:101530008B81882F90E0A90102C0559547958A9527
:10154000E2F7CA018170898323C0E3E3F0E0808180
:10155000282F30E08B81882F90E0A90102C055959B
:1015600047958A95E2F7CA018170898311C0E0E34B
:10157000F0E08081282F30E08B81882F90E0A90156
:1015800002C0559547958A95E2F7CA018170898313
:1015900089810F900F900F900F900F90CF91DF9156
:1015A0000895DF93CF93CDB7DEB7A5E5B0E0E5E5CD
:1015B000F0E0808182608C93A5E5B0E0E5E5F0E0A5
:1015C00080818E7F8C93ABE5B0E0EBE5F0E080812D
:1015D00080648C93CF91DF910895DF93CF93CDB743
:1015E000DEB7A5E5B0E0E5E5F0E0808184608C93AE
:1015F000A5E5B0E0E5E5F0E080818E7F8C93CF91AA
:10160000DF910895DF93CF93CDB7DEB7CF91DF9110
:101610000895DF93CF93CDB7DEB7AFE5B0E0EFE548
:10162000F0E0808180688C93CF91DF910895DF9303
:10163000CF93CDB7DEB7AFE5B0E0EFE5F0E0808166
:101640008F778C93CF91DF910895DF93CF93CDB7B0
:10165000DEB781E060E040E00E94BE0781E061E02B
:1016600040E00E94BE0781E062E040E00E94BE07C9
:1016700081E063E040E00E94BE0781E060E041E07D
:101680000E94070981E061E041E00E94070981E0D2
:1016900062E041E00E94070981E063E041E00E94CE
:1016A000070981E064E041E00E94BE0781E065E057
:1016B00041E00E94BE0781E066E041E00E94BE0773
:1016C00081E067E041E00E94BE0781E064E041E024
:1016D0000E94070981E065E041E00E94070981E07E
:1016E00066E041E00E94070981E067E041E00E9476
:1016F0000709CF91DF910895DF93CF93CDB7DEB780
:10170000E7970FB6F894DEBF0FBECDBF198A188ACF
:10171000CE0142969CAB8BABE8E7F0E0FEABEDABC5
:10172000F0E1FFABEDA9FEA900808DA99EA901966D
:101730009EAB8DABEBA9FCA900828BA99CA901965D
:101740009CAB8BAB9FA991509FABEFA9EE2351F7B8
:1017500081E08AA381E08BA381E08CA381E08DA34B
:101760001EA281E08FA382E088A783E089A781E0A1
:101770008AA781E08BA781E08CA781E08DA784E018
:101780008EA785E08FA786E088AB87E089AB188AB3
:1017900011C18889282F30E0CE018296FC01E20F2A
:1017A000F31F40818889282F30E0CE018E96FC01FE
:1017B000E20FF31F9081842F692F40E00E940709F8
:1017C000198ADAC08989282F30E0CE018296FC017F
:1017D000E20FF31F40818989282F30E0CE018696E1
:1017E000FC01E20FF31F9081842F692F0E94500AA1
:1017F0008F878F85882309F0BCC080E090E0A8E443
:10180000B2E48B879C87AD87BE876B857C858D8591
:101810009E8520E030E04AEF54E40E941F02DC0184
:10182000CB018F839887A987BA876F81788589854F
:101830009A8520E030E040E85FE30E947903882346
:101840002CF481E090E09E838D833FC06F8178858A
:1018500089859A8520E03FEF4FE757E40E941903FE
:1018600018164CF56B857C858D859E8520E030E0D3
:1018700040E251E40E941F02DC01CB01BC01CD011A
:101880000E944900DC01CB019E838D830FC088EC50
:1018900090E09C838B838B819C810197F1F79C83E3
:1018A0008B838D819E8101979E838D838D819E8107
:1018B000009769F714C06F81788589859A850E94A1
:1018C0004900DC01CB019E838D838D819E819A83AB
:1018D000898389819A810197F1F79A83898389891C
:1018E000282F30E0CE018296FC01E20FF31F4081E9
:1018F0008989282F30E0CE018696FC01E20FF31F84
:101900009081842F692F0E94500A8F878F858823AA
:1019100081F517C08989282F30E0CE018296FC011D
:10192000E20FF31F40818989282F30E0CE0186968F
:10193000FC01E20FF31F9081842F692F0E94500A4F
:101940008F878F85882331F38989282F30E0888914
:10195000482F50E0220F331F220F331FCE01019674
:10196000820F931F840F951FFC01719680818AABB3
:1019700027C089898F5F898B8989843008F422CFB9
:101980008889282F30E0CE018A96FC01E20FF31FF0
:1019900040818889282F30E0CE018E96FC01E20F2D
:1019A000F31F9081842F692F41E00E9407098889E5
:1019B0008F5F888B8889843008F4EBCE9FEF9AABD9
:1019C0008AA9E7960FB6F894DEBF0FBECDBFCF91C0
:1019D000DF9108950F931F93DF93CF93CDB7DEB7B9
:1019E00028970FB6F894DEBF0FBECDBF80E06FEF33
:1019F0000E94C60882E060E041E00E94BE0782E0EB
:101A000061E041E00E94BE0782E062E041E00E94A6
:101A1000BE070E94DF060E94250B80E090E060E098
:101A200070E00E94960780E690E00E946D071E829B
:101A30001D821B820E947C0B8C838C81282F30E0BE
:101A400038872F834F815885403351059CF38F8110
:101A500098858A33910534F02F8138852D333105EF
:101A600049F1E8CF8B81833028F78D819E819C01DD
:101A7000220F331FC901880F991F880F991F280F44
:101A8000391F8C81882F90E0820F931FC0979E830F
:101A90008D838B81282F30E081E090E0B9010E9496
:101AA00096078C81882F90E00E9441068B818F5F82
:101AB0008B83C0CF0E94540E80E29EE40E949E0E53
:101AC0008D819E8160E070E043E650E028EE33E0D7
:101AD00000ED17E00E94B00E9A83898329813A8134
:101AE00084EB90E0AC01249FC001259F900D349FB2
:101AF000900D112424E630E0B9010E94F80ECB01CC
:101B00009A83898389819A8160E070E044EB50E098
:101B100028EE33E000ED17E00E94B00E9A8389832F
:101B200089819A810E948C0E83E065E041E00E94E9
:101B3000BE07FFCFDF93CF93CDB7DEB7A3E5B0E00D
:101B4000E3E5F0E080818F7B8C93A3E5B0E0E3E5F3
:101B5000F0E0808188608C93ECE5F0E08AEF808390
:101B6000A9E5B0E0E9E5F0E0808182608C93A3E52F
:101B7000B0E0E3E5F0E080818E7F8C93A3E5B0E0F8
:101B8000E3E5F0E0808182608C93A3E5B0E0E3E5DB
:101B9000F0E080818B7F8C93CF91DF910895DF936C
:101BA000CF93CDB7DEB7A3E5B0E0E3E5F0E0808109
:101BB0008F7B8C93A3E5B0E0E3E5F0E08081886063
:101BC0008C93ECE5F0E08AEF8083A9E5B0E0E9E5ED
:101BD000F0E0808182608C93A3E5B0E0E3E5F0E083
:101BE00080818E7F8C93A3E5B0E0E3E5F0E0808117
:101BF00082608C93A3E5B0E0E3E5F0E080818B7F29
:101C00008C93CF91DF910895DF93CF9300D00F9203
:101C1000CDB7DEB79B838A8381E089838A819B81EC
:101C2000009739F08A819B81909389008093880086
:101C300001C0198289810F900F900F90CF91DF9191
:101C400008951F920F920FB60F9211242F933F9376
:101C50004F935F936F937F938F939F93AF93BF93B4
:101C6000EF93FF93DF93CF93CDB7DEB780918800DA
:101C700090918900009729F0E0918800F091890007
:101C80000995CF91DF91FF91EF91BF91AF919F9116
:101C90008F917F916F915F914F913F912F910F9015
:101CA0000FBE0F901F901895DF93CF93CDB7DEB77F
:101CB000AFE4B0E0EFE4F0E080818F7B8C93AFE4A1
:101CC000B0E0EFE4F0E0808180688C93AFE4B0E0B6
:101CD000EFE4F0E080818E7F8C93AFE4B0E0EFE43E
:101CE000F0E0808182608C93AEE4B0E0EEE4F0E05E
:101CF000808188608C93AEE4B0E0EEE4F0E0808117
:101D000080618C93AEE4B0E0EEE4F0E08081887F07
:101D10008C93CF91DF910895DF93CF9300D0CDB70F
:101D2000DEB79A838983EAE4F0E089819A8191831E
:101D300080830F900F90CF91DF910895DF93CF9321
:101D400000D0CDB7DEB79A838983E6E4F0E08981DD
:101D50009A81918380830F900F90CF91DF910895A6
:101D60000F931F93DF93CF93CDB7DEB72A970FB6AC
:101D7000F894DEBF0FBECDBF9A8389837C836B83CB
:101D80005E834D8338872F831A87098729813A819B
:101D90008B819C81A901481B590B29853A858F812C
:101DA0009885B901681B790BCB019A01289FA00186
:101DB000299F500D389F500D11242D813E818B811C
:101DC0009C81281B390BCA01B9010E94F80ECB0176
:101DD0009C018F819885820F931F2A960FB6F894E5
:101DE000DEBF0FBECDBFCF91DF911F910F91089540
:101DF000AA1BBB1B51E107C0AA1FBB1FA617B70731
:101E000010F0A61BB70B881F991F5A95A9F780954C
:101E10009095BC01CD0108952F923F924F925F9211
:101E20006F927F928F929F92AF92BF92CF92DF92EA
:101E3000EF92FF920F931F93CF93DF93CDB7DEB74F
:101E4000CA1BDB0B0FB6F894DEBF0FBECDBF0994E3
:101E50002A88398848885F846E847D848C849B843A
:101E6000AA84B984C884DF80EE80FD800C811B8148
:101E7000AA81B981CE0FD11D0FB6F894DEBF0FBE77
:0A1E8000CDBFED010895F894FFCFE7
:101E8A00456E74657220616E20616E676C653A00FA
:101E9A0000000000000000003738392F3435362A98
:081EAA003132332D43303D2B92
:00000001FF
