:100000000C942A000C943F000C943F000C943F0089
:100010000C943F000C943F000C943F000C943F0064
:100020000C943F000C943F000C943F000C943F0054
:100030000C943F000C943F000C943F000C943F0044
:100040000C943F000C943F000C943F000C943F0034
:100050000C943F0011241FBECFE5D8E0DEBFCDBF1A
:1000600011E0A0E6B0E0ECE6F7E202C005900D92E8
:10007000AE31B107D9F70E94AB0C0C94B4130C94B9
:100080000000EF92FF920F931F937B018C0120E001
:1000900030E040E05FE40E94410388238CF0C80117
:1000A000B70120E030E040E05FE40E94B9010E9427
:1000B000A1039B01AC01205030404040504806C095
:1000C000C801B7010E94A1039B01AC01B901CA019B
:1000D0001F910F91FF90EF900895A0E0B0E0E3E74B
:1000E000F0E00C947D13DC012B01FA019C9192301D
:1000F00008F439C1EB018881823008F433C19430AF
:1001000069F4843009F02FC111969C91119789816F
:10011000981709F428C1A5E0B1E025C1843009F49D
:1001200021C18230A9F4923009F01DC19A01AD01BC
:1001300088E0EA010990AE01E90109929E0181502F
:10014000C1F7E201898111969C918923818308C1BD
:10015000923009F407C112962D903C901397EB0151
:100160008A819B811496AD90BD90CD90DC901797BD
:10017000EC80FD800E811F819101281B390BB90194
:1001800037FF04C066277727621B730B6032710547
:100190000CF061C0121613066CF537014801062EEB
:1001A00004C096948794779467940A94D2F721E0D8
:1001B00030E040E050E004C0220F331F441F551FC1
:1001C0006A95D2F721503040404050402E213F21C7
:1001D00040235123211531054105510521F021E02E
:1001E00030E040E050E079018A01E628F72808294C
:1001F00019293CC0232BD1F1260E371E35014601AB
:10020000062E04C096948794779467940A94D2F744
:1002100021E030E040E050E004C0220F331F441FD3
:10022000551F6A95D2F721503040404050402A2156
:100230003B214C215D21211531054105510521F05E
:1002400021E030E040E050E059016A01A628B728DB
:10025000C828D9280BC0821593052CF01C01AA24AC
:10026000BB24650103C0EE24FF24870111969C91F5
:10027000D20111968C91981709F445C0992339F051
:10028000A80197012A193B094C095D0906C0A6017E
:1002900095012E193F09400B510B57FD08C01182E3
:1002A0003382228224833583468357831DC081E0B5
:1002B00081833382228288279927DC01821B930B5A
:1002C000A40BB50B84839583A683B7830DC0220F3F
:1002D000331F441F551F24833583468357838281F0
:1002E000938101979383828324813581468157814D
:1002F000DA01C9010197A109B1098F5F9F4FAF4F83
:10030000BF4328F30BC0918333822282EA0CFB1C8B
:100310000C1D1D1DE482F5820683178383E0808314
:10032000248135814681578157FF1AC0C901AA2708
:1003300097FDA095BA2F81709070A070B0705695FF
:10034000479537952795822B932BA42BB52B848328
:100350009583A683B7838281938101969383828359
:10036000DF0101C0D201CD01CDB7DEB7E2E10C94CF
:100370009913A0E2B0E0EFEBF1E00C9489136983EC
:100380007A838B839C832D833E834F835887E9E058
:10039000EE2EF12CEC0EFD1ECE010196B7010E944F
:1003A000CA048E010F5E1F4FCE010596B8010E9450
:1003B000CA048A8991E089278A8BC701B801AE01F6
:1003C000475E5F4F0E946D000E94F503A096E6E035
:1003D0000C94A513A0E2B0E0E0EFF1E00C948913D7
:1003E00069837A838B839C832D833E834F835887D5
:1003F000F9E0EF2EF12CEC0EFD1ECE010196B701B7
:100400000E94CA048E010F5E1F4FCE010596B801EF
:100410000E94CA04C701B801AE01475E5F4F0E9447
:100420006D000E94F503A096E6E00C94A513A0E2EF
:10043000B0E0EDE1F2E00C947D1369837A838B8365
:100440009C832D833E834F835887CE010196BE0146
:10045000675F7F4F0E94CA04CE010596BE016F5EA2
:100460007F4F0E94CA049985923088F08989823032
:10047000C8F0943019F4823051F404C0843029F467
:10048000923081F485E091E0C6C0923049F420E0DA
:100490009A858A89981321E02A87CE010996BBC0E4
:1004A000823049F420E09A858A89981321E02A8BCA
:1004B000CE014196B0C02D843E844F8458886D880B
:1004C0007E888F88988CEE24FF248701AA24BB2481
:1004D000650140E050E060E070E0E0E0F0E0C10184
:1004E00081709070892BE9F0E60CF71C081D191D2E
:1004F0009A01AB012A0D3B1D4C1D5D1D80E090E073
:10050000A0E0B0E0E614F7040805190520F481E046
:1005100090E0A0E0B0E0BA01A901480F591F6A1F9E
:100520007B1FAA0CBB1CCC1CDD1C97FE08C081E005
:1005300090E0A0E0B0E0A82AB92ACA2ADB2A3196C6
:10054000E032F10549F0660C771C881C991C569422
:10055000479437942794C3CFFA85EA892B893C893D
:100560008B859C85280F391F2E5F3F4F17C0CA010E
:1005700081709070892B61F016950795F794E79438
:1005800080E090E0A0E0B0E8E82AF92A0A2B1B2BD3
:1005900076956795579547952F5F3F4F77FDE7CF46
:1005A0000CC0440F551F661F771F17FD4160EE0CEE
:1005B000FF1C001F111F21503040403090E05907B0
:1005C00090E0690790E4790760F32B8F3C8FDB01A3
:1005D000CA018F779070A070B07080349105A1052A
:1005E000B10561F447FD0AC0E114F10401051105EC
:1005F00029F0405C5F4F6F4F7F4F40781A8EFE1797
:1006000011F081E08A8F4D8F5E8F6F8F78A383E02A
:10061000898FCE0149960E94F503A096E2E10C94E1
:100620009913A8E1B0E0E7E1F3E00C948913698342
:100630007A838B839C832D833E834F83588789E005
:10064000E82EF12CEC0EFD1ECE010196B7010E94A2
:10065000CA048E010F5E1F4FCE010596B8010E949D
:10066000CA048985823040F08989823028F0C70128
:10067000B8010E94420501C08FEF6896E6E00C9435
:10068000A513A8E1B0E0E7E4F3E00C9489136983D3
:100690007A838B839C832D833E834F83588789E0A5
:1006A000E82EF12CEC0EFD1ECE010196B7010E9442
:1006B000CA048E010F5E1F4FCE010596B8010E943D
:1006C000CA048985823040F08989823028F0C701C8
:1006D000B8010E94420501C08FEF6896E6E00C94D5
:1006E000A513A8E1B0E0E7E7F3E00C948913698370
:1006F0007A838B839C832D833E834F83588789E045
:10070000E82EF12CEC0EFD1ECE010196B7010E94E1
:10071000CA048E010F5E1F4FCE010596B8010E94DC
:10072000CA048985823040F08989823028F0C70167
:10073000B8010E94420501C081E06896E6E00C9491
:10074000A513ACE0B0E0E7EAF3E00C948D13698305
:100750007A838B839C83CE010196BE016B5F7F4FB2
:100760000E94CA048D81823061F1823050F1843060
:1007700021F48E81882351F12EC02F81388537FDD9
:1007800020C06E812F3131051CF06623F9F023C0A3
:100790008EE190E0821B930B29853A854B855C8521
:1007A00004C056954795379527958A95D2F76623C5
:1007B000B1F050954095309521953F4F4F4F5F4F89
:1007C0000EC020E030E040E050E009C02FEF3FEFE6
:1007D0004FEF5FE704C020E030E040E050E8B901AF
:1007E000CA012C96E2E00C94A913DF92EF92FF92DB
:1007F0000F931F93FC01E480F58006811781D1805F
:100800008081823048F480E090E0A0E1B0E0E82A06
:10081000F92A0A2B1B2BA5C0843009F49FC0823013
:1008200021F4EE24FF24870105C0E114F104010541
:10083000110519F4E0E0F0E096C0628173819FEF4A
:10084000623879070CF05BC022E83FEF261B370BBC
:100850002A3131052CF020E030E040E050E02AC0A1
:10086000B801A701022E04C0769567955795479564
:100870000A94D2F781E090E0A0E0B0E004C0880FD5
:10088000991FAA1FBB1F2A95D2F70197A109B10989
:100890008E219F21A023B1230097A105B10521F04E
:1008A00081E090E0A0E0B0E09A01AB01282B392B69
:1008B0004A2B5B2BDA01C9018F779070A070B07062
:1008C00080349105A105B10539F427FF09C0205CEA
:1008D0003F4F4F4F5F4F04C0215C3F4F4F4F5F4F23
:1008E000E0E0F0E02030A0E03A07A0E04A07A0E412
:1008F0005A0710F0E1E0F0E079018A0127C0603882
:10090000710564F5FB01E158FF4FD801C7018F77EE
:100910009070A070B07080349105A105B10539F4D4
:10092000E7FE0DC080E490E0A0E0B0E004C08FE3FB
:1009300090E0A0E0B0E0E80EF91E0A1F1B1F17FFB1
:1009400005C016950795F794E794319687E01695BC
:100950000795F794E7948A95D1F705C0EE24FF2414
:100960008701EFEFF0E06E2F679566276795902F70
:100970009F77D794DD24D7948E2F8695492F462BC9
:10098000582F5D29B701CA011F910F91FF90EF9079
:10099000DF900895FC01DB01408151812281622FAB
:1009A0006F7770E0221F2227221F9381892F880FE3
:1009B000822B282F30E0991F9927991F11969C931D
:1009C000119721153105A9F54115510561057105ED
:1009D00011F482E037C082E89FEF13969C938E93C8
:1009E00012979A01AB0167E0220F331F441F551F76
:1009F0006A95D1F783E08C930DC0220F331F441FFB
:100A0000551F12968D919C911397019713969C9365
:100A10008E931297203080E0380780E0480780E40A
:100A2000580758F314962D933D934D935C93179765
:100A300008952F3F310579F4411551056105710580
:100A400019F484E08C93089564FF03C081E08C93D3
:100A500012C01C9210C02F57304013963C932E9317
:100A6000129783E08C9387E0440F551F661F771F12
:100A70008A95D1F7706414964D935D936D937C9332
:100A8000179708951F93DC01FB019C91923008F4A5
:100A900047C08081823008F443C0943051F41196ED
:100AA0001C91843099F58181682F70E0611B710978
:100AB0003FC0843021F0923031F48230B9F181812D
:100AC000882389F12DC011961C9111978230F1F085
:100AD00081811817D9F412962D913C911397828138
:100AE00093818217930794F028173907BCF0149666
:100AF0008D919D910D90BC91A02D248135814681D1
:100B00005781281739074A075B0718F4112341F06A
:100B10000AC082179307A407B50740F4112319F000
:100B200061E070E005C06FEF7FEF02C060E070E051
:100B3000CB011F910895DF93CF93CDB7DEB72F97E9
:100B40000FB6F894DEBF0FBECDBF8F8781E060E0A7
:100B500040E00E945F0981E061E040E00E945F099F
:100B600080E06F850E941B0981E062E041E00E9405
:100B70005F0980E090E0A0E0B0E48B879C87AD87C0
:100B8000BE876B857C858D859E8520E030E04AEFB1
:100B900054E40E941702DC01CB018F839887A98758
:100BA000BA876F81788589859A8520E030E040E8B2
:100BB0005FE30E94710388232CF481E090E09E8320
:100BC0008D833FC06F81788589859A8520E03FEFCE
:100BD0004FE757E40E94110318164CF56B857C858E
:100BE0008D859E8520E030E040E251E40E941702AE
:100BF000DC01CB01BC01CD010E944100DC01CB0135
:100C00009E838D830FC088EC90E09C838B838B81C7
:100C10009C810197F1F79C838B838D819E81019745
:100C20009E838D838D819E81009769F714C06F81AB
:100C3000788589859A850E944100DC01CB019E83DD
:100C40008D838D819E819A83898389819A81019781
:100C5000F1F79A83898381E062E040E00E945F09B6
:100C60002F960FB6F894DEBF0FBECDBFCF91DF91A8
:100C70000895DF93CF93CDB7DEB72F970FB6F894D3
:100C8000DEBF0FBECDBF8F8781E060E041E00E94F4
:100C90005F0981E061E040E00E945F0980E06F85CC
:100CA0000E941B0981E062E041E00E945F0980E050
:100CB00090E0A0E0B0E48B879C87AD87BE876B8512
:100CC0007C858D859E8520E030E04AEF54E40E94CB
:100CD0001702DC01CB018F839887A987BA876F81C0
:100CE000788589859A8520E030E040E85FE30E94BE
:100CF000710388232CF481E090E09E838D833FC0B4
:100D00006F81788589859A8520E03FEF4FE757E42A
:100D10000E94110318164CF56B857C858D859E8588
:100D200020E030E040E251E40E941702DC01CB01F8
:100D3000BC01CD010E944100DC01CB019E838D836B
:100D40000FC088EC90E09C838B838B819C81019702
:100D5000F1F79C838B838D819E8101979E838D8388
:100D60008D819E81009769F714C06F817885898590
:100D70009A850E944100DC01CB019E838D838D8189
:100D80009E819A83898389819A810197F1F79A8359
:100D9000898381E062E040E00E945F092F960FB6F0
:100DA000F894DEBF0FBECDBFCF91DF910895DF93E2
:100DB000CF93CDB7DEB72E970FB6F894DEBF0FBE38
:100DC000CDBF80E06FEF0E94CF0781E060E041E09F
:100DD0000E94130881E061E041E00E94130881E075
:100DE00062E041E00E94130880E090E0A0E2B2E4FB
:100DF0008B879C87AD87BE876B857C858D859E851F
:100E000020E030E04AEF54E40E941702DC01CB01FD
:100E10008F839887A987BA876F81788589859A8516
:100E200020E030E040E85FE30E94710388232CF467
:100E300081E090E09E838D833FC06F8178858985B6
:100E40009A8520E03FEF4FE757E40E941103181600
:100E50004CF56B857C858D859E8520E030E040E2F9
:100E600051E40E941702DC01CB01BC01CD010E94BC
:100E70004100DC01CB019E838D830FC088EC90E0A4
:100E80009C838B838B819C810197F1F79C838B835F
:100E90008D819E8101979E838D838D819E81009798
:100EA00069F714C06F81788589859A850E94410011
:100EB000DC01CB019E838D838D819E819A83898302
:100EC00089819A810197F1F79A83898388E30E9447
:100ED0009B058CE00E949B050E94C5072E960FB6CD
:100EE000F894DEBF0FBECDBFCF91DF910895DF93A1
:100EF000CF9300D00F92CDB7DEB79B838A831CC0FF
:100F00008981803120F489818F5F89830AC089813A
:100F1000982F905181E0692F0E94A70789818F5FE8
:100F20008983EA81FB8120818A819B8101969B8351
:100F30008A83822F0E943906EA81FB81808188237F
:100F4000F9F60F900F900F90CF91DF910895DF93F6
:100F5000CF9300D00F92CDB7DEB78A836B838A819F
:100F6000882319F48B81898306C08A81813019F422
:100F70008B81805C8983898180680E949B050F90AA
:100F80000F900F90CF91DF910895DF93CF93CDB75E
:100F9000DEB781E00E949B05CF91DF910895DF933A
:100FA000CF9300D000D0CDB7DEB789836A83898123
:100FB000843090F58981282F30E03C832B838B810E
:100FC0009C8181309105D1F02B813C81223031050B
:100FD0002CF48B819C81009761F01EC02B813C8199
:100FE0002230310581F08B819C818330910581F025
:100FF00013C0EAE3F0E08A8180830EC0E7E3F0E00B
:101000008A81808309C0E4E3F0E08A81808304C0A0
:10101000E1E3F0E08A8180830F900F900F900F90B2
:10102000CF91DF910895DF93CF93CDB7DEB72797A8
:101030000FB6F894DEBF0FBECDBF89836A834B83A2
:101040008981843008F0EEC08A81883008F0EAC0D7
:101050008B81813009F06FC08981282F30E03F8378
:101060002E838E819F818130910549F12E813F81B0
:10107000223031052CF48E819F81009761F0D2C01F
:101080002E813F812230310571F18E819F81833025
:101090009105E9F1C7C0AAE3B0E0EAE3F0E080819E
:1010A000482F8A81282F30E081E090E0022E02C094
:1010B000880F991F0A94E2F7842B8C93B3C0A7E39F
:1010C000B0E0E7E3F0E08081482F8A81282F30E00C
:1010D00081E090E0022E02C0880F991F0A94E2F787
:1010E000842B8C939FC0A4E3B0E0E4E3F0E0808124
:1010F000482F8A81282F30E081E090E0022E02C044
:10110000880F991F0A94E2F7842B8C938BC0A1E37C
:10111000B0E0E1E3F0E08081482F8A81282F30E0C1
:1011200081E090E0022E02C0880F991F0A94E2F736
:10113000842B8C9377C08B81882309F073C08981BD
:10114000282F30E03D832C838C819D818130910557
:1011500059F12C813D81223031052CF48C819D8107
:10116000009769F05FC02C813D812230310589F103
:101170008C819D818330910509F440C053C0AAE35E
:10118000B0E0EAE3F0E08081482F8A81282F30E048
:1011900081E090E0022E02C0880F991F0A94E2F7C6
:1011A000809584238C933EC0A7E3B0E0E7E3F0E0B2
:1011B0008081482F8A81282F30E081E090E0022E44
:1011C00002C0880F991F0A94E2F7809584238C93BC
:1011D00029C0A4E3B0E0E4E3F0E08081482F8A81F5
:1011E000282F30E081E090E0022E02C0880F991F86
:1011F0000A94E2F7809584238C9314C0A1E3B0E0B5
:10120000E1E3F0E08081482F8A81282F30E081E0FF
:1012100090E0022E02C0880F991F0A94E2F7809591
:1012200084238C9327960FB6F894DEBF0FBECDBFF4
:10123000CF91DF910895DF93CF9300D000D0CDB749
:10124000DEB789836A838981843090F58981282F6C
:1012500030E03C832B838B819C8181309105D1F0E0
:101260002B813C81223031052CF48B819C810097AD
:1012700061F01EC02B813C812230310581F08B81D1
:101280009C818330910581F013C0EBE3F0E08A810B
:1012900080830EC0E8E3F0E08A81808309C0E5E343
:1012A000F0E08A81808304C0E2E3F0E08A818083F9
:1012B0000F900F900F900F90CF91DF910895DF93D3
:1012C000CF93CDB7DEB727970FB6F894DEBF0FBE2A
:1012D000CDBF89836A834B838981843008F0EEC057
:1012E0008A81883008F0EAC08B81813009F06FC0B4
:1012F0008981282F30E03F832E838E819F8181302A
:10130000910549F12E813F81223031052CF48E81E7
:101310009F81009761F0D2C02E813F81223031053C
:1013200071F18E819F8183309105E9F1C7C0ABE3F4
:10133000B0E0EBE3F0E08081482F8A81282F30E095
:1013400081E090E0022E02C0880F991F0A94E2F714
:10135000842B8C93B3C0A8E3B0E0E8E3F0E0808195
:10136000482F8A81282F30E081E090E0022E02C0D1
:10137000880F991F0A94E2F7842B8C939FC0A5E3F2
:10138000B0E0E5E3F0E08081482F8A81282F30E04B
:1013900081E090E0022E02C0880F991F0A94E2F7C4
:1013A000842B8C938BC0A2E3B0E0E2E3F0E0808179
:1013B000482F8A81282F30E081E090E0022E02C081
:1013C000880F991F0A94E2F7842B8C9377C08B8146
:1013D000882309F073C08981282F30E03D832C8356
:1013E0008C819D818130910559F12C813D81223084
:1013F00031052CF48C819D81009769F05FC02C81B0
:101400003D812230310589F18C819D8183309105A8
:1014100009F440C053C0ABE3B0E0EBE3F0E08081FF
:10142000482F8A81282F30E081E090E0022E02C010
:10143000880F991F0A94E2F7809584238C933EC00D
:10144000A8E3B0E0E8E3F0E08081482F8A81282F0C
:1014500030E081E090E0022E02C0880F991F0A94CC
:10146000E2F7809584238C9329C0A5E3B0E0E5E3FF
:10147000F0E08081482F8A81282F30E081E090E0E1
:10148000022E02C0880F991F0A94E2F780958423E8
:101490008C9314C0A2E3B0E0E2E3F0E08081482F37
:1014A0008A81282F30E081E090E0022E02C0880F70
:1014B000991F0A94E2F7809584238C9327960FB6A0
:1014C000F894DEBF0FBECDBFCF91DF910895DF93BB
:1014D000CF9300D000D00F92CDB7DEB78A836B8355
:1014E0008A81843008F06BC08B81883008F067C037
:1014F0008A81282F30E03D832C834C815D814130EF
:10150000510541F18C819D818230910534F42C810B
:101510003D812115310561F052C04C815D81423021
:10152000510551F18C819D8183309105B9F147C0FE
:10153000E9E3F0E08081282F30E08B81882F90E074
:10154000A90102C0559547958A95E2F7CA018170B5
:10155000898335C0E6E3F0E08081282F30E08B817D
:10156000882F90E0A90102C0559547958A95E2F72A
:10157000CA018170898323C0E3E3F0E08081282FD2
:1015800030E08B81882F90E0A90102C055954795E6
:101590008A95E2F7CA018170898311C0E0E3F0E027
:1015A0008081282F30E08B81882F90E0A90102C034
:1015B000559547958A95E2F7CA018170898389819B
:1015C0000F900F900F900F900F90CF91DF91089593
:1015D000DF93CF93CDB7DEB782E060E040E00E94BA
:1015E000130882E061E040E00E94130882E062E0BC
:1015F00040E00E94130882E063E040E00E9413088C
:1016000082E060E041E00E945F0982E061E041E049
:101610000E945F0982E062E041E00E945F0982E08F
:1016200063E041E00E945F0982E064E041E00E94E3
:10163000130882E065E041E00E94130882E066E062
:1016400041E00E94130882E067E041E00E94130835
:1016500082E064E041E00E945F0982E065E041E0F1
:101660000E945F0982E066E041E00E945F0982E03B
:1016700067E041E00E945F09CF91DF910895DF9319
:10168000CF93CDB7DEB7E7970FB6F894DEBF0FBEA6
:10169000CDBFCE0142969CAB8BABEDE0F1E0FEAB53
:1016A000EDABF0E1FFABEDA9FEA900808DA99EA9ED
:1016B00001969EAB8DABEBA9FCA900828BA99CA9DE
:1016C00001969CAB8BAB9FA991509FABEFA9EE23EA
:1016D00051F782E08AA382E08BA382E08CA382E0B0
:1016E0008DA31EA281E08FA382E088A783E089A753
:1016F00082E08AA782E08BA782E08CA782E08DA798
:1017000084E08EA785E08FA786E088AB87E089AB71
:10171000188A11C18889282F30E0CE018A96FC01F1
:10172000E20FF31F40818889282F30E0CE018E968A
:10173000FC01E20FF31F9081842F692F40E00E948B
:101740005F09198ADAC08989282F30E0CE01829694
:10175000FC01E20FF31F40818989282F30E0CE0180
:101760008696FC01E20FF31F9081842F692F0E945F
:10177000670A8F878F85882309F0BCC080E090E0DE
:10178000A8E4B2E48B879C87AD87BE876B857C8598
:101790008D859E8520E030E04AEF54E40E941702D8
:1017A000DC01CB018F839887A987BA876F81788501
:1017B00089859A8520E030E040E85FE30E9471036C
:1017C00088232CF481E090E09E838D833FC06F815D
:1017D000788589859A8520E03FEF4FE757E40E949E
:1017E000110318164CF56B857C858D859E8520E050
:1017F00030E040E251E40E941702DC01CB01BC0161
:10180000CD010E944100DC01CB019E838D830FC07E
:1018100088EC90E09C838B838B819C810197F1F70E
:101820009C838B838D819E8101979E838D838D8187
:101830009E81009769F714C06F81788589859A85A4
:101840000E944100DC01CB019E838D838D819E81AE
:101850009A83898389819A810197F1F79A83898391
:101860008989282F30E0CE018296FC01E20FF31F18
:1018700040818989282F30E0CE018696FC01E20F55
:10188000F31F9081842F692F0E94670A8F878F85AD
:10189000882381F517C08989282F30E0CE018296F0
:1018A000FC01E20FF31F40818989282F30E0CE012F
:1018B0008696FC01E20FF31F9081842F692F0E940E
:1018C000670A8F878F85882331F38989282F30E035
:1018D0008889482F50E0220F331F220F331FCE017B
:1018E0000196820F931F840F951FFC0171968081D2
:1018F0008AAB27C089898F5F898B8989843008F4F6
:1019000022CF8889282F30E0CE018A96FC01E20F91
:10191000F31F40818889282F30E0CE018E96FC018C
:10192000E20FF31F9081842F692F41E00E945F092D
:1019300088898F5F888B8889843008F4EBCE9FEF8D
:101940009AAB8AA9E7960FB6F894DEBF0FBECDBF5B
:10195000CF91DF9108950F931F93DF93CF93CDB76E
:10196000DEB7C55FD0400FB6F894DEBF0FBECDBF67
:101970000E94D7060E94E80A9E01225C3F4FC25394
:10198000DF4F39832883CE5CD04080E690E0C0539F
:10199000DF4F99838883C05DD04095E0CE52DF4F02
:1019A0009883C25DD040C053DF4FE881F981C05DAC
:1019B000D0400080C053DF4F28813981C05DD040C6
:1019C0002F5F3F4FC053DF4F39832883C05DD04026
:1019D000C253DF4FE881F981CE5CD0400082C25310
:1019E000DF4F28813981CE5CD0402F5F3F4FC253FB
:1019F000DF4F39832883CE5CD040CE52DF4F388111
:101A0000C25DD0403150CE52DF4F3883C25DD040EE
:101A1000CE52DF4F8881C25DD040882321F6CE01AF
:101A20008D5B9F4FCD52DF4F99838883C35DD0403C
:101A3000E5E6F0E0CB52DF4FF983E883C55DD040A7
:101A4000F5E0C952DF4FF883C75DD040CB52DF4F7E
:101A5000E881F981C55DD0400080CB52DF4F2881FD
:101A60003981C55DD0402F5F3F4FCB52DF4F398367
:101A70002883C55DD040CD52DF4FE881F981C35D39
:101A8000D0400082CD52DF4F28813981C35DD040E4
:101A90002F5F3F4FCD52DF4F39832883C35DD04046
:101AA000C952DF4F3881C75DD0403150C952DF4F36
:101AB0003883C75DD040C952DF4F8881C75DD040B1
:101AC000882321F6CE01885B9F4FC852DF4F998350
:101AD0008883C85DD040EAE6F0E0C652DF4FF98364
:101AE000E883CA5DD040FDE1C452DF4FF883CC5D8E
:101AF000D040C652DF4FE881F981CA5DD0400080F6
:101B0000C652DF4F28813981CA5DD0402F5F3F4FD9
:101B1000C652DF4F39832883CA5DD040C852DF4F99
:101B2000E881F981C85DD0400082C852DF4F28812A
:101B30003981C85DD0402F5F3F4FC852DF4F398396
:101B40002883C85DD040C452DF4F3881CC5DD0407F
:101B50003150C452DF4F3883CC5DD040C452DF4F88
:101B60008881CC5DD040882321F6CE018B599F4FD0
:101B7000C352DF4F99838883CD5DD040E7E8F0E022
:101B8000C152DF4FF983E883CF5DD040FFE1CF51F1
:101B9000DF4FF883C15ED040C152DF4FE881F98149
:101BA000CF5DD0400080C152DF4F28813981CF5DA9
:101BB000D0402F5F3F4FC152DF4F39832883CF5D25
:101BC000D040C352DF4FE881F981CD5DD040008223
:101BD000C352DF4F28813981CD5DD0402F5F3F4F09
:101BE000C352DF4F39832883CD5DD040CF51DF4FC3
:101BF0003881C15ED0403150CF51DF4F3883C15E54
:101C0000D040CF51DF4F8881C15ED040882321F67C
:101C1000CE018C579F4FCE51DF4F99838883C25E90
:101C2000D040E6EAF0E0CC51DF4FF983E883C45EB0
:101C3000D040FAE1CA51DF4FF883C65ED040CC51A4
:101C4000DF4FE881F981C45ED0400080CC51DF4F86
:101C500028813981C45ED0402F5F3F4FCC51DF4F88
:101C600039832883C45ED040CE51DF4FE881F981AB
:101C7000C25ED0400082CE51DF4F28813981C25EE2
:101C8000D0402F5F3F4FCE51DF4F39832883C25E54
:101C9000D040CA51DF4F3881C65ED0403150CA5162
:101CA000DF4F3883C65ED040CA51DF4F8881C65EA1
:101CB000D040882321F6CE0182569F4FC951DF4F75
:101CC00099838883C75ED040E0ECF0E0C751DF4FD6
:101CD000F983E883C95ED040FAE0C551DF4FF8834D
:101CE000CB5ED040C751DF4FE881F981C95ED0405B
:101CF0000080C751DF4F28813981C95ED0402F5FF6
:101D00003F4FC751DF4F39832883C95ED040C95147
:101D1000DF4FE881F981C75ED0400082C951DF4FB3
:101D200028813981C75ED0402F5F3F4FC951DF4FB7
:101D300039832883C75ED040C551DF4F3881CB5EE1
:101D4000D0403150C551DF4F3883CB5ED040C551B4
:101D5000DF4F8881CB5ED040882321F6CE018855A5
:101D60009F4FC451DF4F99838883CC5ED040EAEC0B
:101D7000F0E0C251DF4FF983E883CE5ED040FBE054
:101D8000C051DF4FF883C05FD040C251DF4FE881C0
:101D9000F981CE5ED0400080C251DF4F2881398169
:101DA000CE5ED0402F5F3F4FC251DF4F3983288333
:101DB000CE5ED040C451DF4FE881F981CC5ED04087
:101DC0000082C451DF4F28813981CC5ED0402F5F23
:101DD0003F4FC451DF4F39832883CC5ED040C05180
:101DE000DF4F3881C05FD0403150C051DF4F388362
:101DF000C05FD040C051DF4F8881C05FD040882392
:101E000021F6CE018D549F4FCF50DF4F99838883A9
:101E1000C15FD040E5EDF0E0CD50DF4FF983E883BE
:101E2000C35FD040F4E1CB50DF4FF883C55FD040B3
:101E3000CD50DF4FE881F981C35FD0400080CD50A5
:101E4000DF4F28813981C35FD0402F5F3F4FCD5096
:101E5000DF4F39832883C35FD040CF50DF4FE88105
:101E6000F981C15FD0400082CF50DF4F2881398196
:101E7000C15FD0402F5F3F4FCF50DF4F3983288362
:101E8000C15FD040CB50DF4F3881C55FD04031506B
:101E9000CB50DF4F3883C55FD040CB50DF4F8881B8
:101EA000C55FD040882321F685E08CAFCE01885BEA
:101EB0009F4F0E94770780E090E0AFE2B4E48DABE3
:101EC0009EABAFABB8AF6DA97EA98FA998AD20E04E
:101ED00030E04AEF54E40E941702DC01CB0189ABE9
:101EE0009AABABABBCAB69A97AA98BA99CA920E042
:101EF00030E040E85FE30E94710388232CF481E026
:101F000090E098AB8FA73FC069A97AA98BA99CA93B
:101F100020E03FEF4FE757E40E94110318164CF5FD
:101F20006DA97EA98FA998AD20E030E040E251E490
:101F30000E941702DC01CB01BC01CD010E944100CF
:101F4000DC01CB0198AB8FA70FC088EC90E09EA777
:101F50008DA78DA59EA50197F1F79EA78DA78FA5AB
:101F600098A9019798AB8FA78FA598A9009769F7B3
:101F700014C069A97AA98BA99CA90E944100DC011F
:101F8000CB0198AB8FA78FA598A99CA78BA78BA5F2
:101F90009CA50197F1F79CA78BA70E94C507CE01CE
:101FA0008D5B9F4F0E94E21189AFF8C10E94C50767
:101FB000CE018B599F4F0E9477070E943F0B8DAF38
:101FC0008DAD8F3FD1F30E94C5078DADE82FF0E0B6
:101FD000C453DF4FF983E883CC5CD040C453DF4F58
:101FE00028813981CC5CD0402233310509F490C07E
:101FF000C453DF4F88819981CC5CD04083339105F5
:1020000009F420C1C453DF4FE881F981CC5CD04092
:10201000E133F10509F0C2C1CE018C579F4F0E94F8
:102020007707CE01CE960E94770780E090E0AAE77E
:10203000B4E48FA398A7A9A7BAA76FA178A589A58B
:102040009AA520E030E04AEF54E40E941702DC0138
:10205000CB018BA39CA3ADA3BEA36BA17CA18DA13F
:102060009EA120E030E040E85FE30E9471038823F6
:102070002CF481E090E09AA389A33FC06BA17CA1DE
:102080008DA19EA120E03FEF4FE757E40E9411038E
:1020900018164CF56FA178A589A59AA520E030E027
:1020A00040E251E40E941702DC01CB01BC01CD01EA
:1020B0000E944100DC01CB019AA389A30FC088ECE8
:1020C00090E098A38F8F8F8D98A10197F1F798A337
:1020D0008F8F89A19AA101979AA389A389A19AA117
:1020E000009769F75BC16BA17CA18DA19EA10E94A5
:1020F0004100DC01CB019AA389A389A19AA19E8FFB
:102100008D8F8D8D9E8D0197F1F79E8F8D8F46C19E
:10211000CE0182569F4F0E947707CE0189539F4F71
:102120006CAD0E9470120E94C507CE01CE960E942F
:10213000B4128C01CE0189539F4F0E94B412800FBC
:10214000911F9BAF8AAF8AAD9BAD9E01225C3F4F32
:10215000B9010E94F312CE01CE960E94770780E06B
:1021600090E0AAE7B4E4898F9A8FAB8FBC8F698D1A
:102170007A8D8B8D9C8D20E030E04AEF54E40E94F4
:102180001702DC01CB018D8B9E8BAF8BB88F6D89D5
:102190007E898F89988D20E030E040E85FE30E94DF
:1021A000710388232CF481E090E09C8B8B8B3FC0E3
:1021B0006D897E898F89988D20E03FEF4FE757E446
:1021C0000E94110318164CF5698D7A8D8B8D9C8DAC
:1021D00020E030E040E251E40E941702DC01CB0134
:1021E000BC01CD010E944100DC01CB019C8B8B8B9B
:1021F0000FC088EC90E09A8B898B89899A89019726
:10220000F1F79A8B898B8B899C8901979C8B8B8B9F
:102210008B899C89009769F7C1C06D897E898F89F8
:10222000988D0E944100DC01CB019C8B8B8B8B89AC
:102230009C89988B8F878F8598890197F1F7988B68
:102240008F87ACC0CE0188559F4F0E947707CE0183
:1022500089539F4F6CAD0E947012CE01CE960E94A2
:10226000B4128C01CE0189539F4F0E94B412801783
:102270009107C8F4CE01CE960E94B4128C01CE0113
:1022800089539F4F0E94B4129801281B390BC90132
:102290009BAF8AAF8AAD9BAD9E01225C3F4FB901D7
:1022A0000E94F31205C0CE018D549F4F0E94770704
:1022B000CE01CE960E94770780E090E0AAE7B4E4D2
:1022C0008B879C87AD87BE876B857C858D859E853A
:1022D00020E030E04AEF54E40E941702DC01CB0119
:1022E0008F839887A987BA876F81788589859A8532
:1022F00020E030E040E85FE30E94710388232CF483
:1023000081E090E09E838D833FC06F8178858985D1
:102310009A8520E03FEF4FE757E40E94110318161B
:102320004CF56B857C858D859E8520E030E040E214
:1023300051E40E941702DC01CB01BC01CD010E94D7
:102340004100DC01CB019E838D830FC088EC90E0BF
:102350009C838B838B819C810197F1F79C838B837A
:102360008D819E8101979E838D838D819E810097B3
:1023700069F714C06F81788589859A850E9441002C
:10238000DC01CB019E838D838D819E819A8389831D
:1023900089819A810197F1F79A83898389AD882F82
:1023A00090E03FEF8F3F930709F000CECB50DF4F17
:1023B0000FB6F894DEBF0FBECDBFCF91DF911F9156
:1023C0000F9108950F931F93DF93CF93CDB7DEB78F
:1023D000AA970FB6F894DEBF0FBECDBF9DA38CA306
:1023E0001982CE0108969FA38EA3E9EEF0E0F9A72B
:1023F000E8A7FCE1FAA7E8A5F9A5008088A599A5BA
:10240000019699A788A7EEA1FFA100828EA19FA1A6
:1024100001969FA38EA39AA591509AA7EAA5EE23B1
:1024200051F71B824DC01A823BC08A81082F10E0F1
:102430000E943F0B282FCE010496FC01E00FF11FF4
:1024400020838A81282F30E0CE010496FC01E20F20
:10245000F31F80818F3F49F38A81282F30E0CE011E
:102460000496FC01E20FF31F80810E9439068A81E5
:10247000282F30E0CE010496FC01E20FF31F4081CB
:102480008A81282F30E08CA19DA1FC01E20FF31F6F
:102490008081481711F081E089838A818F5F8A8368
:1024A0008A81843010F28981813071F40E94C507DD
:1024B000CE0108960E94770719828B818F5F8B83EC
:1024C0008B81833008F4AFCF8981AA960FB6F89438
:1024D000DEBF0FBECDBFCF91DF911F910F91089549
:1024E000DF93CF9300D000D00F92CDB7DEB79C839F
:1024F0008B836D831A822CC00E943F0B8983898154
:102500008F3FD1F389818D33C9F08A81282F30E044
:102510008B819C81FC01E20FF31F898180838A817A
:10252000282F30E08B819C81FC01E20FF31F80811A
:102530000E9439068A818F5F8A830AC08A81282F88
:1025400030E08B819C81FC01E20FF31F108204C0FC
:102550009A818D81981780F20F900F900F900F90B5
:102560000F90CF91DF910895DF93CF9300D000D0EB
:102570000F92CDB7DEB79D838C8320C08A819B816B
:102580009C01220F331FC901880F991F880F991FC3
:10259000A901480F591F8981282F30E08C819D8126
:1025A000FC01E20FF31F8081882F90E0840F951FBC
:1025B000C0979B838A8389818F5F89838981282F34
:1025C00030E08C819D81FC01E20FF31F8081882324
:1025D000A9F68A819B810F900F900F900F900F901A
:1025E000CF91DF910895DF93CF93CDB7DEB72897D2
:1025F0000FB6F894DEBF0FBECDBF9E838D83788764
:102600006F838D81898309C08B818F5F8B838981E3
:102610009AE0692F0E945D13898389818823A1F73D
:1026200021C08A81882F90E09C01220F331FC901AD
:10263000880F991F880F991F820F931F482F8D8134
:102640009E812AE030E0B9010E946913840F8A83D9
:102650008D819E812AE030E0B9010E946913CB018F
:102660009E838D838D819E810097D9F61C8218C030
:102670008C81282F30E08F819885FC01E20FF31FB9
:102680008A819AE0692F0E945D13892F80838A8155
:102690009AE0692F0E945D138A838C818F5F8C83FF
:1026A0009C818B81981720F328960FB6F894DEBF93
:1026B0000FBECDBFCF91DF910895991B79E004C083
:1026C000991F961708F0961B881F7A95C9F7809571
:1026D0000895AA1BBB1B51E107C0AA1FBB1FA61769
:1026E000B70710F0A61BB70B881F991F5A95A9F7BB
:1026F00080959095BC01CD0108952F923F924F9205
:102700005F926F927F928F929F92AF92BF92CF9281
:10271000DF92EF92FF920F931F93CF93DF93CDB78A
:10272000DEB7CA1BDB0B0FB6F894DEBF0FBECDBF02
:1027300009942A88398848885F846E847D848C84D3
:102740009B84AA84B984C884DF80EE80FD800C81DC
:102750001B81AA81B981CE0FD11D0FB6F894DEBFBF
:0C2760000FBECDBFED010895F894FFCF2F
:10276C003230303000313233340057656C636F6D6A
:10277C006520656E74657220796F75722070617357
:10278C0073776F72643A00312D62616C616E6365B0
:10279C0020322D6465706F73697420332D776974E2
:1027AC00686472617700796F7572206375727265F7
:1027BC006E742062616C616E63652069733A2000EF
:1027CC006465706F7369743A200077697468647219
:1027DC0061773A20006E6F7420656E6F75676820A4
:1027EC0062616C616E6365200057726F6E6720705A
:1027FC00617373776F72642C2074727920616761D6
:10280C00696E3A20000000000000000000373839E3
:0E281C002F3435362A3132332D43303D2B0018
:00000001FF
