:020000040800F2
:1000000000000120C5020008CB020008CF02000852
:1000100041030008450300088D03000800000000AC
:10002000000000000000000000000000D5030008F0
:10003000D903000800000000DD030008E103000808
:10004000F1030008F1030008F1030008F1030008C0
:10005000F1030008F1030008F1030008F1030008B0
:10006000F1030008F1030008F1030008F1030008A0
:10007000F1030008F1030008F1030008F103000890
:10008000F1030008F1030008F1030008000000007C
:10009000000000000000000000000000F103000864
:1000A000F1030008F1030008F1030008F103000860
:1000B000F1030008F1030008F1030008F103000850
:1000C000F1030008F1030008F1030008F103000840
:1000D00099180008CD1A0008F1030008000000007C
:1000E000F1030008F1030008F1030008000000001C
:1000F000000000000000000000000000F103000804
:1001000000000000F1030008F1030008F1030008FB
:1001100000000000000000000000000000000000DF
:10012000F1030008F1030008F1030008F1030008DF
:10013000F1030008000000000000000000000000C3
:10014000000000000000000000000000F1030008B3
:10015000F1030008F1030008F1030008F1030008AF
:10016000F1030008F1030008000000000000000097
:10017000000000000000000000000000000000007F
:1001800000000000F1030008000000000000000073
:10019000F103000800B583B000F046FE384B394A41
:1001A0001360394A1360394900E02146384B9942BF
:1001B0000BD20A684B6801F10C0488689842F4D9A4
:1001C0001168196004330432F8E72E4B1A68314B7A
:1001D0009A4200D0FEE72C4B1A682F4B9A42F9D175
:1001E000274B2E4A13602E4A13602E4B05E0002049
:1001F000106004329342FAD80B462B4A934204D241
:10020000194651F8082B5B68F4E7244B1B6813B9B7
:10021000234B1B6803B1FEE701F0ACFC694601A863
:1002200000F094FD214C224BE41AA4100025AC42AE
:1002300014DC204C204BE41AA4100025AC4213DC43
:100240000099019801F0FEFC05461C4C1C4BE41A79
:10025000A410002C0EDC284600F04AFD144B53F885
:10026000253098470135E2E7134B53F8253098477E
:100270000135E3E7013C124B53F824309847E8E797
:10028000BABADECA000000207C000020F403000897
:100290000C040008785634123254769880000020FE
:1002A000340100200C0400081C0400081C04000891
:1002B0001C0400081C0400081C0400081C0400089E
:1002C0001C04000808B5FFF765FF00BEFEE71EF03E
:1002D000040F0CBFEFF30880EFF309807146414A29
:1002E00010472DE9F04182B004468846124B5E6B00
:1002F0009F6B9D6A1B6B13F0020F03D00E4BDB6AE2
:10030000002B0CDB0D4800F033FDCDF800803B46A0
:1003100032462946204600F093FD00BEFEE74BF62C
:10032000AB6100F007FE0028ECD0034B4FF0004219
:10033000DA6202B0BDE8F08100ED00E0C82F0008ED
:1003400000BEFEE71EF0040F0CBFEFF30880EFF3D2
:1003500009807146244A10472DE9F04182B00446D5
:100360008846084B5E6B9F6B9D6A074800F000FD56
:10037000CDF800803B4632462946204600F060FD1D
:1003800000BEFEE700ED00E0D82F00081EF0040FCD
:100390000CBFEFF30880EFF309807146134A104752
:1003A0002DE9F04182B004468846084B5E6B9F6B96
:1003B0009D6A074800F0DCFCCDF800803B463246E1
:1003C0002946204600F03CFD00BEFEE700ED00E0BF
:1003D000E42F000800BEFEE700BEFEE700BEFEE719
:1003E00070470000E302000859030008A103000859
:0403F00000BEFEE766
:1003F400807A01080000002080000020807A010833
:1004040000000010000000108000002038010020CF
:080414000000001000000010C0
:1004200010B50446074B1868074BA3FB0030800942
:1004300000F090F8002221464FF0FF3000F044F821
:10044000002010BD0C000020D34D621008B50B4BEE
:100450001A6842F400721A601A6842F480621A60E4
:100460001A6842F480721A60032000F00FF80F201F
:10047000FFF7D6FF01F050FC002008BD003C024011
:10048000014B1868704700BF1801002010B50446E2
:10049000C31E042B0FD80A4AD36823F4E0631B045D
:1004A0001B0C240204F4E064234343F0BF6343F4D1
:1004B0000033D36010BDA421024800F04FFCEAE7EE
:1004C00000ED00E0F82D000870B505460C46164614
:1004D0000F2A25D80F2C28D81B4BDB68C3F3022327
:1004E000C3F10702042A28BF0422191D062921D9B5
:1004F000033B4FF0FF3101FA02F224EA02049C4070
:1005000001FA03F326EA03063443002D14DB240129
:10051000E4B205F1604505F5614585F8004370BD1D
:10052000BC210A4800F01AFCD4E7BD21074800F0BE
:1005300015FCD1E70023DCE705F00F052401E4B248
:10054000034B5C55EBE700BF00ED00E0F82D000821
:1005500014ED00E00138B0F1807F0AD2064B5860FC
:10056000064AF02182F823100020986007221A60C2
:1005700070470120704700BF10E000E000ED00E090
:1005800010B50446042800D038B9042C0BD0094A11
:10059000136823F00403136010BD40F2B311064842
:1005A00000F0DCFBF1E7034A136843F00403136037
:1005B000F2E700BF10E000E0F82D000830B583B08E
:1005C000044603680F2B29D8236813F0010F3DD090
:1005D0006368012B01D9052B25D1A34B9B6803F040
:1005E0000C03042B29D0A04B9B6803F00C03082BB1
:1005F0001ED022799D4B1A706368002B50D0FFF7F4
:100600003FFF0546984B1B6813F4003F1ED1FFF7D0
:1006100037FF401B6428F5D90320E3E1F521944816
:1006200000F09CFBD0E7FA21914800F097FBD4E75B
:100630008D4B5B6813F4800FDBD08B4B1B6813F47E
:10064000003F03D06368002B00F0C981236813F0DA
:10065000020F5DD0E368012B31D823691F2B34D8FA
:10066000814B9B6813F00C0F3AD07F4B9B6803F0D3
:100670000C03082B2FD0E368002B74D07D4B012294
:100680001A60FFF7FDFE0546774B1B6813F0020F5B
:100690005AD1FFF7F5FE401B0228F5D90320A1E14E
:1006A000FFF7EEFE0546704B1B6813F4003FCDD0FC
:1006B000FFF7E6FE401B6428F5D9032092E14FF4D2
:1006C00096716B4800F04AFBC7E740F22D1168486D
:1006D00000F044FBC4E7644B5B6813F4800FCAD19D
:1006E000614B1B6813F0020F04D0E368012B01D0AB
:1006F000012077E15C48036823F0F8032169F822C0
:1007000092FAA2F2B2FA82F201FA02F21343036001
:10071000236813F0080F50D06369012B35D8636943
:10072000002B38D0544B01221A60FFF7A9FE054672
:100730004D4B5B6F13F0020F3FD1FFF7A1FE401B43
:100740000228F5D903204DE14748036823F0F80358
:100750002169F82292FAA2F2B2FA82F201FA02F2C6
:1007600013430360D4E7434B00221A60FFF788FE6F
:1007700005463D4B1B6813F0020FC9D0FFF780FE02
:10078000401B0228F5D903202CE140F26D113848B6
:1007900000F0E4FAC3E7384B00221A60FFF770FE5E
:1007A0000546314B5B6F13F0020F06D0FFF768FE72
:1007B000401B0228F5D9032014E1236813F0040F2D
:1007C00060D0A368012B01D9052B1FD10023019311
:1007D000254B1A6C42F080521A641B6C03F0805354
:1007E0000193019B254A136843F480731360FFF75C
:1007F00047FE0546214B1B6813F4807F0CD1FFF7A1
:100800003FFE401B0228F5D90320EBE040F2971190
:10081000174800F0A3FAD9E7227A194B1A70A36897
:1008200083B1FFF72DFE05460F4B1B6F13F0020F30
:1008300028D1FFF725FE401B41F288339842F3D9B7
:100840000320CFE0FFF71CFE0546074B1B6F13F09C
:10085000020F17D0FFF714FE401B41F28833984275
:10086000F3D90320BEE000BF003802400238024046
:100870003C2E000800004742800E474200700040B6
:1008800070380240A369022B39D8A369002B00F00D
:10089000A880564A926802F00C02082A00F0A48050
:1008A000022B40F08880E36913B1B3F5800F2CD19F
:1008B000236A3F2B2FD8636A323BB3F5BF7F30D812
:1008C000A36A022B05D0042B03D0062B01D0082BE2
:1008D0002DD1E36A043B0B2B2FD8454B00221A6025
:1008E000FFF7CEFD0546414B1B6813F0007F2AD071
:1008F000FFF7C6FD401B0228F5D9032072E04FF434
:10090000E6713C4800F02AFABFE740F2D5113948B9
:1009100000F024FACCE74FF4EB71364800F01EFAF1
:10092000C9E740F2D711334800F018FAC8E74FF48E
:10093000EC71304800F012FACBE740F2D9112D48A3
:1009400000F00CFAC9E7E369226A1343616A47F6CB
:10095000C07292FAA2F2B2FA82F201FA02F21343E0
:10096000A26A5208013A4FF4403191FAA1F1B1FA6A
:1009700081F18A401343E16A4FF0706292FAA2F269
:10098000B2FA82F201FA02F21343184A5360184B8A
:1009900001221A60FFF774FD0446144B1B6813F024
:1009A000007F06D1FFF76CFD001B0228F5D903205C
:1009B00018E0002016E00E4B00221A60FFF760FDE1
:1009C00004460A4B1B6813F0007F06D0FFF758FD62
:1009D000001B0228F5D9032004E0002002E00120DA
:1009E00000E0002003B030BD0120FBE700380240EA
:1009F000600047423C2E0008214B9B6803F00C032B
:100A0000042B3AD0082B01D01E4870471C4B586865
:100A100000F03F005B6813F4800F1ED01A4AB2FB4F
:100A2000F0F2174B586847F6C073184093FAA3F3D7
:100A3000B3FA83F3D84000FB02F0114B5B6803F478
:100A400040334FF4403292FAA2F2B2FA82F2D3402B
:100A500001335B00B0FBF3F070470A4AB2FBF0F2DF
:100A6000074B586847F6C073184093FAA3F3B3FADC
:100A700083F3D84000FB02F0DFE70348704700BF74
:100A8000003802400024F40040787D0170B504462F
:100A90000D460368013B0E2B11D8072D15D88C4B42
:100AA0001B6803F00F03AB4215D2EBB2884A1370F8
:100AB000136803F00F03AB420DD0012070BD40F26C
:100AC0003721844800F04AF9E7E74FF40E71814876
:100AD00000F044F9E3E7236813F0020F18D0A3688D
:100AE0007BB1802B0DD0902B0BD0A02B09D0B02B3D
:100AF00007D0C02B05D0D02B03D0E02B01D0F02B9A
:100B000037D1754A936823F0F003A1680B439360D3
:100B1000236813F0010F73D06368032B2FD8636829
:100B2000012B32D09A1E012A36D96B4A126812F074
:100B3000020F00F0CA8068498A6822F0030213435A
:100B40008B60FFF79DFC06466368012B2BD0022BC0
:100B500038D0032B45D0604B9B6813F00C0F4FD05F
:100B6000FFF78EFC801B41F288339842F3D90320B3
:100B7000A4E740F24F21574800F0F0F8C1E740F2F7
:100B80005621544800F0EAF8C9E7534A126812F4B3
:100B9000003FD0D1012091E74F4A126812F0007F48
:100BA000C9D101208AE74C4B9B6803F00C03042B4E
:100BB00026D0FFF765FC801B41F288339842F2D9BA
:100BC00003207BE7444B9B6803F00C03082B17D0F2
:100BD000FFF756FC801B41F288339842F2D903207C
:100BE0006CE73D4B9B6803F00C030C2B08D0FFF720
:100BF00047FC801B41F288339842F2D903205DE71D
:100C0000334B1B6803F00F03AB4209D9EAB2304BF8
:100C10001A701B6803F00F03AB4201D001204DE7AF
:100C2000236813F0040F14D0E3685BB1B3F5805F61
:100C300008D0B3F5A05F05D0B3F5C05F02D0B3F51F
:100C4000E05F36D1244A936823F4E053E1680B4314
:100C50009360236813F0080F15D023695BB1B3F5D7
:100C6000805F08D0B3F5A05F05D0B3F5C05F02D0B8
:100C7000B3F5E05F23D1184A936823F460432169F8
:100C800043EAC1039360FFF7B7FE134B9B6803F081
:100C9000F003F02292FAA2F2B2FA82F2D3400F4AA3
:100CA000D35CD8400E4B18600F20FFF7B9FB002033
:100CB00004E74FF42D71074800F050F8C2E740F206
:100CC000BB21044800F04AF8D5E70120F6E600BF52
:100CD000003C02403C2E0008003802402C2E000848
:100CE0000C000020014B1868704700BF0C0000206A
:100CF000FEE7000008B5034800F052F80120FFF7B6
:100D0000F7FF00BF6C2E000808B503460C4A1268B6
:100D10005AB10B4A1068033323F003030344094A12
:100D2000934206D8064A136008BD054A0649116079
:100D3000EFE701F0E1FB0C2303604FF0FF30F3E736
:100D40008400002000FC0020380100200123036003
:100D5000014B0B60704700BF0400002008B50A4635
:100D60000146024800F004F8FFF7C4FF802E000897
:100D70000FB400B583B004AB53F8042B019380216A
:100D8000064801F0F3FB002803DD0146034800F0AC
:100D900047F803B05DF804EB04B070478C00002006
:100DA00010B5044601F0AEFB0146204600F038F8CD
:100DB0000121024800F034F810BD00BF442F0008A4
:100DC0002DE9F04385B004460F4643560BB10E465D
:100DD0001EE0042528462146ABBE0446384605B031
:100DE000BDE8F08314F9011B04AA1A4402F8101C90
:100DF0000133AB42F6D304AA1344002203F8102CAB
:100E00004FF00408E94640464946ABBE8046761B93
:100E1000002EE3D03546102E28BF10250023E8E72A
:100E200008B5FFF7CDFF08BD08B500F093F8024AFA
:100E3000024B9A6008BD00BF0000000800ED00E012
:100E4000F8B504460D4617461E462748FFF790FFA3
:100E500021682648FFF78CFF61682548FFF788FF67
:100E6000A1682448FFF784FFE1682348FFF780FF6B
:100E700021692248FFF77CFF61692148FFF778FF6D
:100E8000A1692048FFF774FFE1691F48FFF770FF71
:100E90001E48FFF76DFF29461D48FFF769FF1D4CEF
:100EA000E16A1D48FFF764FF216B1C48FFF760FFF4
:100EB000E16B1B48FFF75CFF15F0800F0AD115F4BA
:100EC000004F0CD11748FFF753FF06991648FFF75C
:100ED0004FFFF8BD39461548FFF74AFFEFE73146A7
:100EE0001348FFF745FFEDE7AC2E0008BC2E0008C5
:100EF000CC2E0008DC2E0008EC2E0008FC2E00088A
:100F00000C2F00081C2F00082C2F00083C2F000875
:100F1000482F000800ED00E0582F0008682F000857
:100F2000782F0008A82F0008B02F0008882F00088D
:100F3000982F000883691A888A4201D000207047E0
:100F40000268033A012A03D8023383610120704703
:100F5000002070470C4B1A6842F001021A60002111
:100F600099601A6822F0847222F480321A60074A6B
:100F70005A601A6822F480221A60D960044B4FF03C
:100F800000629A60704700BF0038024010300024B1
:100F900000ED00E0224B9B6803F00C03042B14D0FF
:100FA000082B16D01BB11F4B1F4A1A6002E01D4BC5
:100FB0001D4A1A601A4B9B68C3F303131B4AD15C8A
:100FC000184A1368CB4013607047164B184A1A60D2
:100FD000F0E7134B5A685B6803F03F0312F4800F8D
:100FE00013D0134AB2FBF3F20D4B5B68C3F38813C3
:100FF00003FB02F30A4A5268C2F301420132520073
:10100000B3FBF2F3074A1360D4E7074AB2FBF3F2EB
:10101000034B5B68C3F3881303FB02F3EAE700BFEB
:10102000003802400C0000200024F400F42F0008D7
:1010300040787D0110B5044600220F21022000F007
:10104000C1FA00220F21022000F0BCFA2146002044
:1010500000F01AFA01220D21022000F0B3FA02205A
:1010600000F02AFC00220D21022000F0ABFA10BD96
:1010700008B501220D21022000F018FA01220E21EC
:10108000022000F013FA01220F21022000F00EFAD4
:10109000022300220D21184600F040FA022300220C
:1010A0000E21184600F03AFA022300220F211846BA
:1010B00000F034FA282000F0FFFB0122002108464E
:1010C00000F0F4F901221146002000F0EFF90122AE
:1010D0000221002000F0EAF901220321002000F0A3
:1010E000E5F901220421002000F0E0F901220521A8
:1010F000002000F0DBF901220621002000F0D6F9E3
:1011000001220721002000F0D1F90223002211461C
:10111000104600F003FA022300220121104600F0DD
:10112000FDF9022300221946104600F0F7F90223C8
:1011300000220321104600F0F1F9022300220421CD
:10114000104600F0EBF9022300220521104600F0C2
:10115000E5F9022300220621104600F0DFF9022300
:1011600000220721104600F0D9F93820FFF762FF6E
:101170000C20FFF75FFF0120FFF75CFF08BD10B5F3
:10118000044601220F21022000F01CFA00220E2149
:10119000022000F017FA2146002000F075F9012224
:1011A0000D21022000F00EFA022000F085FB002243
:1011B0000D21022000F006FA10BD38B505460024C6
:1011C00003E0FFF7DCFF0134E4B2285D0028F8D12A
:1011D00038BD08B510B1012805D0002141F08000CC
:1011E000FFF728FF08BD4031C9B2F7E72DE9F0410C
:1011F00005460E4617469846C800C0B240F040006B
:10120000FFF718FF002404E0285DFFF7B8FF013462
:10121000E4B2072CF8D941463846FFF7DAFF3046EA
:10122000FFF7ADFFBDE8F08108B50120FFF702FF31
:1012300008BD10B5044600220821012000F008FA7C
:1012400001220A21104600F003FA204600F016FBA6
:1012500001220821104600F0FBF910BD10B504462C
:1012600000220821012000F0F3F900220A210120C8
:1012700000F0EEF9204600F001FB012208211046A3
:1012800000F0E6F910BD08B501220921104600F072
:10129000DFF9642000F010FB00220921012000F09A
:1012A000D7F9012000F008FB01220921104600F0C7
:1012B000CFF9642000F000FB00220921012000F09A
:1012C000C7F9642000F0F8FA01220921104600F065
:1012D000BFF9782000F0F0FA1120FFF7BFFF962049
:1012E00000F0EAFA3A20FFF7B9FF0520FFF7A1FF67
:1012F0002920FFF7B3FF08BD08B500F0D5FA00F0CC
:101300008BFA01220921104600F0D0F801230022B7
:101310000921184600F002F900220921012000F0FD
:1013200097F901220821104600F0C0F8012300229D
:101330000821184600F0F2F800220821012000F0F0
:1013400087F901220A21104600F0B0F8012300229B
:101350000A21184600F0E2F802220D21012000F0D7
:10136000A5F805220D21012000F0AEF902220E2180
:10137000012000F09BF805220E21012000F0A4F9C5
:1013800002220F21012000F091F805220F210120F7
:1013900000F09AF9FFF777FF1120FFF75FFF962023
:1013A00000F08AFA3A20FFF759FF0520FFF741FFC6
:1013B0002920FFF753FF012000F07EFA08BD38B561
:1013C00005462A20FFF74AFF0020FFF732FF0020E2
:1013D000FFF72FFF0020FFF72CFF7F20FFF729FFEB
:1013E0002B20FFF73BFF0020FFF723FF0020FFF734
:1013F00020FF0020FFF71DFF9F20FFF71AFF2C2082
:10140000FFF72CFF00240AE035F81400000AFFF76C
:1014100010FF15F81400FFF70CFF0134A4B2B4F567
:10142000A04FF1D338BD38B505462A20FFF716FF87
:101430000020FFF7FEFE0020FFF7FBFE0020FFF775
:10144000F8FE7F20FFF7F5FE2B20FFF707FF0020B7
:10145000FFF7EFFE0020FFF7ECFE0020FFF7E9FEAC
:101460009F20FFF7E6FE2C20FFF7F8FE002406E0A1
:10147000280AFFF7DEFEE8B2FFF7DBFE0134B4F521
:10148000A04FF5D338BD0000012806D010B10228C6
:1014900006D07047044B59617047034B5961704740
:1014A000014B5961704700BF0000024010B4012891
:1014B00012D018B102281DD010BC7047144B186808
:1014C000490003248C4020EA04001860186802FADE
:1014D00001F101431960EFE70E4B1868490003243E
:1014E0008C4020EA04001860186802FA01F10143F8
:1014F0001960E1E7084B1868490003248C4020EA92
:1015000004001860186802FA01F101431960D3E77A
:1015100000000240000402400008024070B40128AC
:101520001BD018B102282FD070BC704722488568A4
:101530004C000326A64025EA060585608568A34081
:101540002B438360436801248C4023EA04034360F7
:1015500043688A401A434260E6E7184885684C00B1
:101560000326A64025EA060585608568A3402B432F
:101570008360436801248C4023EA0403436043688A
:101580008A401A434260CFE70D4884684E00032525
:10159000B54024EA050484608468B3402343836033
:1015A000436801248C4023EA0403436043688A4073
:1015B0001A434260B8E700BF000002400004024046
:1015C00000080240012816D010B1022826D070472A
:1015D00042B1012A34D11B48436902FA01F119438F
:1015E0004161704717484369012202FA01F123EA79
:1015F00001014161704742B1012A21D1124843697A
:1016000002FA01F11943416170470F484369012211
:1016100002FA01F123EA01014161704742B1012A56
:101620000ED10A48436902FA01F11943416170473A
:1016300006484369012202FA01F123EA01014161EE
:10164000704700BF00000240000402400008024052
:10165000012813D010B1022820D070473AB1012AD6
:101660002BD1012303FA01F1144B9961704710311A
:10167000012303FA01F1114B996170473AB1012A34
:101680001BD1012303FA01F10D4B99617047103111
:10169000012303FA01F10A4B996170473AB1012A1B
:1016A0000BD1012303FA01F1064B99617047103108
:1016B000012303FA01F1034B9961704700000240D6
:1016C0000004024000080240034620B9A1F10D00C9
:1016D000C0B202280DD9012B07D0072922D8012B2F
:1016E00010D03BB1022B15D07047C81EC0B20128E4
:1016F000F3D870471E48036A890002FA01F11943C2
:10170000016270471B48036A890002FA01F119431C
:10171000016270471848036A890002FA01F119430F
:101720000162704710B4012B0ED01BB1022B15D0F3
:1017300010BC70470E4C606A01F007039B0002FA70
:1017400003F101436162F3E70A4C606A01F00703A9
:101750009B0002FA03F101436162E9E70648436A2C
:1017600001F00701890002FA01F119434162DFE744
:1017700000000240000402400008024010B4440986
:10178000064951F8243000F01F00012202FA00F04F
:10179000184341F8240010BC704700BF00E100E08E
:1017A000084A136843F001031360064B1B6813F0EB
:1017B000020FFAD0034B9A6802F007029A609A6807
:1017C0009A60704700380240032822D8DFE800F012
:1017D000020A121A0F48036C012202FA01F119439E
:1017E000016470470B48436C012202FA01F119436E
:1017F000416470470748036B012202FA01F1194363
:10180000016370470348436B012202FA01F1194357
:101810004163704700380240174B1A6822F4006297
:101820001A601A6842F400721A601A6842F48072F0
:101830001A601A6822F080021A601A6822F0030205
:101840001A601A6842F003021A605A6822F0800295
:101850005A605A6822F040025A601A6842F0040244
:101860001A601A6822F038021A601A681A601A6838
:1018700042F040021A60704700380040C0B2054B89
:10188000D860044B9B6813F0800FFAD1014BD868E5
:10189000C0B270470038004008B5024B5B6803B126
:1018A000984708BD20010020024A136823F0040372
:1018B0001360704710E000E04FF47A5303FB00F030
:1018C000094B586000229A601A6842F001021A60BF
:1018D000054B1B6813F4803FFAD0034A136823F0CA
:1018E00001031360704700BF10E000E0000000003B
:1018F000D0B54B4CE3686FF3CF33E360E3686FF32D
:101900000C33E360E3686FF3CB23E360E3686FF3CA
:101910008A23E360E3686FF30823E360E3686FF30F
:10192000C713E360E3686FF38613E360E36843F093
:101930002003E360E3686FF30413E360E36843F0BC
:101940000103E360E068C0F3C030C0F1020000F0C2
:1019500037FB0022334B00F09DFB0022324B00F09E
:1019600099FB02460B462CA1D1E9000100F0BCFC1A
:1019700000F0A2FD80B20001A060E068C0F3C030BA
:10198000C0F1020000F01CFB0022264B00F082FB9D
:101990000022254B00F07EFB02460B461EA1D1E93A
:1019A000000100F0A1FC06460F46E068C0F3C0301D
:1019B000C0F1020000F004FB00221A4B00F06AFBA9
:1019C0000022194B00F066FB02460B4612A1D1E93A
:1019D000000100F089FC00F06FFD80B200F0F0FA29
:1019E00002460B463046394600F09CF900220F4B68
:1019F00000F050FB00F060FD00F00F00A3681843FA
:101A0000A060E36843F00803E360E36843F0040385
:101A1000E360D0BDAFF300800000000080846E4121
:101A2000001001400000204000C0C24000003040D3
:101A300002280DD0062814D0012800D070470D4B85
:101A40001B6813F0200FFAD00A4B5B680B707047CD
:101A5000094B1B6813F0200FFAD0074B5B680B7023
:101A60007047064B1B6813F0200FFAD0034B5B68DE
:101A70000B70E3E7001001400044004000140140F7
:101A800002280AD006280ED0012800D07047094A43
:101A9000D36843F40053D3607047074AD36843F4D4
:101AA0000053D3607047054AD36843F40053D360B2
:101AB000ECE700BF0010014000440040001401406A
:101AC000014B1860704700BF0C01002008B5024BA5
:101AD0001B68984708BD00BF0C01002070B594B08A
:101AE00000240194204B1A6C42F080521A641B6C43
:101AF00003F080530193019B02941C4B1A6842F43B
:101B000040421A601B6803F440430293029B012386
:101B1000089309934FF480030F93192310934FF404
:101B2000A8731193042612960723139302250E958A
:101B300008A8FEF743FD0F230393049505944FF483
:101B4000805306930794294603A8FEF79FFFFFF7EB
:101B5000C9F8074BA3FB00308009FEF7FBFC3046B9
:101B6000FEF70EFD14B070BD00380240007000405A
:101B7000D34D621008B5FEF769FCFFF7AFFFFFF722
:101B800009FA08BD10B5284C21460120FFF750FF87
:101B90002378612B04D0622B20D0632B3CD010BD66
:101BA000FFF766FA01210020FFF713FB1F48FFF73C
:101BB00004FB01210846FFF70CFB1D48FFF7FDFA67
:101BC0000F23012211461B48FFF710FB41F288301A
:101BD000FFF772FE1848FFF7F2FBE0E7FFF748FA5D
:101BE00001210020FFF7F5FA1448FFF7E6FA01217A
:101BF0000846FFF7EEFA0E48FFF7DFFA0F2301223F
:101C000011460C48FFF7F2FA41F28830FFF754FE14
:101C10000B48FFF7D4FBC2E74FF6FF70FFF703FC5A
:101C2000FFF702FBBBE700BF30010020047A010888
:101C3000107A01081000002004300008207A010802
:101C400004D5000808B5FFF7ABFDFFF72DFE012115
:101C50000220FFF7B9FD00210220FFF7B5FD0221A8
:101C60000846FFF7B1FD0E210020FFF7ADFD04216E
:101C70000120FFF7A9FD022209210020FFF716FC31
:101C800002220A210020FFF711FC0722092100206F
:101C9000FFF71AFD07220A210020FFF715FD252076
:101CA000FFF76CFD1748FFF70BFFFFF721FE012040
:101CB000FFF7E6FEFFF7DCF902210020FFF789FAC3
:101CC0001148FFF77AFA02210120FFF782FA0F4844
:101CD000FFF773FA4FF4FA70FFF7EEFDFFF7A4FA7F
:101CE00000210846FFF775FA0948FFF766FA022156
:101CF0000120FFF76EFA0748FFF75FFAFFF7FCFADB
:101D0000FEE700BF851B00082C7A0108107A010845
:101D1000387A0108407A01087047000081F00041DC
:101D200002E000BF83F0004330B54FEA41044FEAC0
:101D3000430594EA050F08BF90EA020F1FBF54EA5B
:101D4000000C55EA020C7FEA645C7FEA655C00F0F7
:101D5000E2804FEA5454D4EB5555B8BF6D420CDDC8
:101D60002C4480EA020281EA030382EA000083EA4B
:101D7000010180EA020281EA0303362D88BF30BDEB
:101D800011F0004F4FEA01314FF4801C4CEA113141
:101D900002D0404261EB410113F0004F4FEA0333A0
:101DA0004CEA133302D0524263EB430394EA050F2B
:101DB00000F0A780A4F10104D5F1200E0DDB02FA9A
:101DC0000EFC22FA05F2801841F1000103FA0EF22E
:101DD000801843FA05F359410EE0A5F120050EF1F4
:101DE000200E012A03FA0EFC28BF4CF0020C43FA25
:101DF00005F3C01851EBE37101F0004507D54FF032
:101E0000000EDCF1000C7EEB00006EEB0101B1F581
:101E1000801F1BD3B1F5001F0CD349085FEA3000C7
:101E20004FEA3C0C04F101044FEA445212F5800FD2
:101E300080F09A80BCF1004F08BF5FEA500C50F16F
:101E4000000041EB045141EA050130BD5FEA4C0C52
:101E5000404141EB010111F4801FA4F10104E9D1DB
:101E600091F0000F04BF01460020B1FA81F308BFD2
:101E70002033A3F10B03B3F120020CDA0C3208DD9E
:101E800002F1140CC2F10C0201FA0CF021FA02F179
:101E90000CE002F11402D8BFC2F1200C01FA02F1E9
:101EA00020FA0CFCDCBF41EA0C019040E41AA2BF0E
:101EB00001EB0451294330BD6FEA04041F3C1CDAD6
:101EC0000C340EDC04F11404C4F1200220FA04F0F6
:101ED00001FA02F340EA030021FA04F345EA0301A0
:101EE00030BDC4F10C04C4F1200220FA02F001FA62
:101EF00004F340EA0300294630BD21FA04F02946E4
:101F000030BD94F0000F83F4801306BF81F480117C
:101F10000134013D4EE77FEA645C18BF7FEA655CEF
:101F200029D094EA050F08BF90EA020F05D054EAC1
:101F3000000C04BF1946104630BD91EA030F1EBFC6
:101F40000021002030BD5FEA545C05D140004941CA
:101F500028BF41F0004130BD14F580043CBF01F5BD
:101F6000801130BD01F0004545F0FE4141F47001A3
:101F70004FF0000030BD7FEA645C1ABF194610467E
:101F80007FEA655C1CBF0B46024650EA013406BF7F
:101F900052EA033591EA030F41F4002130BD00BF3E
:101FA00090F0000F04BF0021704730B54FF48064FB
:101FB00004F132044FF000054FF0000150E700BF7C
:101FC00090F0000F04BF0021704730B54FF48064DB
:101FD00004F1320410F0004548BF40424FF00001C8
:101FE0003EE700BF42004FEAE2014FEA31014FEA0B
:101FF00002701FBF12F07F4393F07F4F81F060515A
:10200000704732F07F4208BF704793F07F4F04BFA4
:1020100041F40021704730B54FF4607401F0004581
:1020200021F000411CE700BF50EA010208BF7047E1
:1020300030B54FF000050AE050EA010208BF7047D2
:1020400030B511F0004502D5404261EB41014FF43B
:10205000806404F132045FEA915C3FF4D8AE4FF043
:1020600003025FEADC0C18BF03325FEADC0C18BF26
:10207000033202EBDC02C2F1200300FA03FC20FA77
:1020800002F001FA03FE40EA0E0021FA02F11444C4
:10209000BDE600BF70B54FF0FF0C4CF4E06C1CEADD
:1020A00011541DBF1CEA135594EA0C0F95EA0C0F4E
:1020B00000F0DEF82C4481EA030621EA4C5123EAC1
:1020C0004C5350EA013518BF52EA033541F48011F0
:1020D00043F4801338D0A0FB02CE4FF00005E1FBA3
:1020E00002E506F00042E0FB03E54FF00006E1FBED
:1020F00003569CF0000F18BF4EF0010EA4F1FF0430
:10210000B6F5007F64F5407404D25FEA4E0E6D416F
:1021100046EB060642EAC62141EA55514FEAC52080
:1021200040EA5E504FEACE2EB4F1FD0C88BFBCF5FC
:10213000E06F1ED8BEF1004F08BF5FEA500E50F1AD
:10214000000041EB045170BD06F0004646EA010173
:1021500040EA020081EA0301B4EB5C04C2BFD4EBA5
:102160000C0541EA045170BD41F480114FF0000E9E
:10217000013C00F3AB8014F1360FDEBF002001F00C
:10218000004170BDC4F10004203C35DA0C341BDC86
:1021900004F11404C4F1200500FA05F320FA04F058
:1021A00001FA05F240EA020001F0004221F000418C
:1021B00010EBD37021FA04F642EB06015EEA430EFF
:1021C00008BF20EAD37070BDC4F10C04C4F120052F
:1021D00000FA04F320FA05F001FA04F240EA0200E2
:1021E00001F0004110EBD37041F100015EEA430EB3
:1021F00008BF20EAD37070BDC4F1200500FA05F2D3
:102200004EEA020E20FA04F301FA05F243EA020351
:1022100021FA04F001F0004121FA04F220EA020060
:1022200000EBD3705EEA430E08BF20EAD37070BDA6
:1022300094F0000F0FD101F00046400041EB010186
:1022400011F4801F08BF013CF7D041EA060195F068
:10225000000F18BF704703F00046520043EB030322
:1022600013F4801F08BF013DF7D043EA060370470F
:1022700094EA0C0F0CEA135518BF95EA0C0F0CD01A
:1022800050EA410618BF52EA4306D1D181EA030160
:1022900001F000414FF0000070BD50EA410606BF5A
:1022A0001046194652EA430619D094EA0C0F02D19F
:1022B00050EA013613D195EA0C0F05D152EA0336E4
:1022C0001CBF104619460AD181EA030101F0004102
:1022D00041F0FE4141F470014FF0000070BD41F04B
:1022E000FE4141F4780170BD70B54FF0FF0C4CF425
:1022F000E06C1CEA11541DBF1CEA135594EA0C0F44
:1023000095EA0C0F00F0A7F8A4EB050481EA030E90
:1023100052EA03354FEA013100F088804FEA033377
:102320004FF0805545EA131343EA12634FEA022245
:1023300045EA111545EA10654FEA00260EF0004106
:102340009D4208BF964244F1FD0404F5407402D258
:102350005B084FEA3202B61A65EB03055B084FEAE9
:1023600032024FF480104FF4002CB6EB020E75EBE6
:10237000030E22BFB61A754640EA0C005B084FEA0E
:102380003202B6EB020E75EB030E22BFB61A75468B
:1023900040EA5C005B084FEA3202B6EB020E75EBD6
:1023A000030E22BFB61A754640EA9C005B084FEA4E
:1023B0003202B6EB020E75EB030E22BFB61A75465B
:1023C00040EADC0055EA060E18D04FEA051545EA4A
:1023D00016754FEA06164FEAC30343EA52734FEAF3
:1023E000C2025FEA1C1CC0D111F4801F0BD141EA6C
:1023F00000014FF000004FF0004CB6E711F4801FD1
:1024000004BF01430020B4F1FD0C88BFBCF5E06FB0
:102410003FF6AFAEB5EB030C04BFB6EB020C5FEAC0
:10242000500C50F1000041EB045170BD0EF0004E15
:102430004EEA113114EB5C04C2BFD4EB0C0541EA47
:10244000045170BD41F480114FF0000E013C90E644
:1024500045EA060E8DE60CEA135594EA0C0F08BF08
:1024600095EA0C0F3FF43BAF94EA0C0F0AD150EA07
:1024700001347FF434AF95EA0C0F7FF425AF10469A
:1024800019462CE795EA0C0F06D152EA03353FF4C2
:10249000FDAE1046194622E750EA410618BF52EA3F
:1024A00043067FF4C5AE50EA41047FF40DAF52EA13
:1024B00043057FF4EBAE12E74A0011D212F5001289
:1024C00011D20DD56FF47873B3EB62520ED44FEA8C
:1024D000C12343F0004343EA505323FA02F070470C
:1024E0004FF00000704750EA013002D14FF0FF304A
:1024F00070474FF000007047014B1868704700BFED
:1025000018000020034613F8012B002AFBD1181AEB
:102510000138704730B5141E05469BB0184605DAE1
:102520008B232B604FF0FF301BB030BD4FF4027394
:10253000ADF80C3014BF04F1FF332346029305932A
:102540004FF6FF7300910491ADF80E3002461E9BCA
:102550006946284600F072F8431CBCBF8B232B60F1
:10256000002CE1D0009B00221A70DDE707B5009334
:1025700013460A46014603480068FFF7CBFF03B045
:102580005DF804FB180000202DE9F0478E689E429C
:1025900082460C469046994637D88A8912F4906F45
:1025A00031D0256809696F1A6569022305EB450575
:1025B00095FBF3F509F101033B449D4238BF1D46ED
:1025C000530530D5294600F07DFB064650B90C2353
:1025D000CAF80030A38943F04003A3814FF0FF30D5
:1025E000BDE8F0873A46216900F0FAFAA38923F49E
:1025F000906343F08003A381266165613E44ED1B37
:102600002660A5604E464E4500D94E4632464146AC
:10261000206800F0F0FAA3689B1BA36023681E44A7
:1026200026600020DCE72A4600F0A6FB06460028CC
:10263000E2D12169504600F0F7FAC8E72DE9F04FE2
:102640009DB0804603938B891D060C4616460FD518
:102650000B696BB9402100F035FB2060206128B97F
:102660000C23C8F800304FF0FF30C7E0402363610F
:102670000023099320238DF8293030238DF82A3048
:102680004FF0010B37463D4615F8013B0BB1252BAA
:102690003ED1B7EB060A0BD05346324621464046A0
:1026A000FFF772FF013000F0A480099B53440993A7
:1026B0003B78002B00F09D8000234FF0FF32CDE9E6
:1026C0000523049307938DF853301A932F46052260
:1026D00017F8011B4F4800F033FA049BD0B9D90614
:1026E00044BF20228DF853201A0744BF2B228DF8B7
:1026F00053202A782A2A15D0079A2F4600200A2527
:10270000394611F8013B303B092B4DD9B8B10FE0E8
:102710002F46B8E73F4A801A0BFA00F0184304909E
:102720003D46D3E7039A111D12680391002A01DB8D
:10273000079204E0524243F00203079204933B786D
:102740002E2B0CD17B782A2B33D1039B1A1D1B68AF
:102750000392002BB8BF4FF0FF33023705932E4D85
:1027600039780322284600F0EBF938B14023401BAA
:1027700003FA00F0049B0343013704933978274898
:102780008DF8281006227E1C00F0DAF9002838D0D7
:10279000234B13BB039B073323F007030833039337
:1027A000099B4B4409936DE705FB023201200F465C
:1027B000A6E700230137059319460A25384610F885
:1027C000012B303A092A03D9002BC8D00591C6E75E
:1027D00005FB012101230746F0E703AB00932246E6
:1027E000104B04A94046AFF30080B0F1FF3F814693
:1027F000D6D1A3895B063FF536AF09981DB0BDE879
:10280000F08F03AB00932246064B04A9404600F02C
:1028100081F8EAE74C7A0108527A0108567A0108F1
:1028200000000000892500082DE9F04791461F4669
:102830008A680B69DDF820809342B8BF1346C9F857
:10284000003091F8432006460C4612B10133C9F816
:1028500000302368990642BFD9F800300233C9F826
:102860000030256815F0060507D104F1190AE36860
:10287000D9F800209B1AAB4228DC94F84330226838
:10288000003318BF012392062DD404F143023946C8
:102890003046C047013020D02368E568D9F80020D1
:1028A00003F00603042B08BFAD1AA36822690CBF0E
:1028B00025EAE57500259342C4BF9B1AED184FF039
:1028C00000091A344D451AD1002008E00123524670
:1028D00039463046C047013003D14FF0FF30BDE8E4
:1028E000F0870135C3E7E1185A1C302081F8430016
:1028F000224494F8451082F843100233C5E70123BF
:10290000224639463046C0470130E6D009F1010978
:10291000D8E700002DE9F04301F1430C0C46097E95
:1029200085B06E291746064698460C9A00F0B3808B
:1029300022D8632936D00AD8002900F0B980582956
:1029400000F0838004F1420584F8421032E06429EB
:1029500001D06929F6D120681368050603F1040146
:102960002AD51B681160002B03DA2D225B4284F804
:1029700043206F480A2239E0732900F09D8008D86F
:102980006F2920D07029DDD1236843F02003236014
:1029900003E0752917D07829D4D1782384F84530FD
:1029A000644855E01368191D1B68116004F1420565
:1029B00084F8423001238CE01B68116010F0400F56
:1029C00018BF1BB2CFE713682568181D10602806D2
:1029D00001D51B6802E06806FBD51B8854486F29A7
:1029E00014BF0A220822002184F843106568A560FC
:1029F000002DC0F29580216821F004012160002B98
:102A00003DD1002D40F08E806546082A0BD1236809
:102A1000DB0708D5236962689A42DEBF302305F8D8
:102A2000013C05F1FF35ACEB05032361CDF80080D7
:102A30003B4603AA21463046FFF7F6FE01304DD152
:102A40004FF0FF3005B0BDE8F083394884F84510F9
:102A5000136821681D1D1B6815600A060BD5CA077F
:102A600044BF41F0200121601BB9226822F02002FE
:102A700022601022B7E74D0648BF9BB2EFE76546DC
:102A8000B3FBF2F102FB1133C35C05F8013D0B46C9
:102A90000029F5D1B9E7136825686169181D106030
:102AA00028061B6801D5196002E06A06FBD519806B
:102AB000002323616546B9E71368191D11601D687D
:102AC00062680021284600F03BF808B1401B6060B6
:102AD00063682361002384F84330A7E723692A460B
:102AE00039463046C0470130AAD023689B0713D42B
:102AF000E068039B9842B8BF1846A3E701234A4603
:102B000039463046C04701309AD00135E368039A10
:102B10009B1AAB42F2DCEBE7002504F11909F5E75B
:102B2000002BACD1037884F8423004F142056CE705
:102B30005D7A01086E7A01080000000000000000C4
:102B400001F0FF01102A2BDB10F0070F08D010F85E
:102B5000013B013A8B422DD010F0070F42B3F6D162
:102B6000F0B441EA012141EA014122F007047FF07B
:102B700000070023F0E80256083C85EA010586EAD2
:102B8000010685FA47F5A3FA87F586FA47F6A5FA0E
:102B900087F68EB9EED1F0BC01F0FF0102F007021A
:102BA00032B110F8013B013A83EA010313B1F8D1C5
:102BB0000020704701387047002D06BF35460338A6
:102BC000073815F0010F07D1013015F4807F02BFDF
:102BD000013015F4C03F0130F0BC0138704700BF30
:102BE00010B5431E0A44914200D110BD11F8014BAB
:102BF00003F8014FF7E7884210B501EB020307D84D
:102C0000421E99420AD011F8014B02F8014FF8E731
:102C10008342F5D98118D21AD34200D110BD13F8DE
:102C2000014D01F8014DF7E738B50546002945D0BB
:102C300051F8043C0C1F002BB8BFE41800F0D2F888
:102C40001F4A1368104633B9636014602846BDE814
:102C5000384000F0C8B8A3420CD9216862189342EA
:102C600004BF1A685B68636004BF52182260046086
:102C7000ECE713465A680AB1A242FAD91968581803
:102C8000A0420BD120680144581882421960DDD15E
:102C9000106852685A6001441960D7E702D90C23C2
:102CA0002B60D3E7206821188A4204BF116852685C
:102CB000626004BF091821605C60C7E738BD00BFCF
:102CC0001001002070B5CD1C25F0030508350C2D32
:102CD00038BF0C25002D064601DBA94203D90C2381
:102CE0003360002070BD00F07DF8214A1468214651
:102CF00091B9204C23681BB9304600F063F820607E
:102D00002946304600F05EF8431C24D10C23336082
:102D1000304600F068F8E4E70B685B1B18D40B2B17
:102D20000FD90B60CD50CC18304600F05CF804F1A0
:102D30000B00231D20F00700C31AD3D05A42E250E3
:102D4000D0E78C424B6816BF636013600C46EBE71C
:102D50000C464968CCE7C41C24F00304A04205D00B
:102D6000211A304600F02EF80130CFD02560DBE785
:102D70001001002014010020F8B5074614460E4645
:102D800021B91146BDE8F840FFF79CBF22B9FFF713
:102D90004BFF25462846F8BD00F026F8A0420FD28A
:102DA00021463846FFF78EFF05460028F2D031460F
:102DB0002246FFF715FF31463846FFF735FFE9E7B2
:102DC0003546E7E738B5064C00230546084623603C
:102DD000FDF79AFF431C02D1236803B12B6038BD75
:102DE0001C0100207047704751F8043C181F002B4D
:102DF000BCBF0B58C01870472E2E2F7379737465A3
:102E00006D2F7372632F73746D333266342D686166
:102E10006C2F73746D3332663478785F68616C5FE1
:102E2000636F727465782E6300000000000000007C
:102E30000102030401020304060708092E2E2F7362
:102E4000797374656D2F7372632F73746D3332668B
:102E5000342D68616C2F73746D3332663478785F0B
:102E600068616C5F7263632E6300000061626F7261
:102E70007428292C2065786974696E672E2E2E00BF
:102E80006173736572745F706172616D2829206669
:102E900061696C65643A2066696C6520222573223D
:102EA0002C206C696E652025640A000053746163F0
:102EB0006B206672616D653A0A0000002052302076
:102EC0003D2020253038580A0000000020523120D3
:102ED0003D2020253038580A0000000020523220C2
:102EE0003D2020253038580A0000000020523320B1
:102EF0003D2020253038580A000000002052313291
:102F0000203D20253038580A00000000204C522077
:102F10003D2020253038580A000000002050432072
:102F20003D2020253038580A000000002050535220
:102F3000203D20253038580A000000004653522F0B
:102F40004641523A0A0000002043465352203D2099
:102F500020253038580A00002048465352203D2092
:102F600020253038580A00002044465352203D2086
:102F700020253038580A00002041465352203D2079
:102F800020253038580A0000204D4D464152203D42
:102F900020253038580A00002042464152203D206A
:102FA00020253038580A00004D6973630A0000007C
:102FB000204C522F4558435F52455455524E3D20A8
:102FC000253038580A0000005B486172644661751C
:102FD0006C745D0A000000005B4275734661756C9D
:102FE000745D0A005B55736167654661756C745D5D
:102FF0000A000000000000000000000001020304BD
:1030000006070809FFFFFFFFFFFFFFFFFFFFFFFFAE
:10301000FFFFFFFFFFFFFFFFFFFFFFFFFFFFFFFFC0
:10302000FFFFFFFFFFFFFFFFFFFFFFFFFFFFFFFFB0
:10303000FFFFFFFFFFFFFFFFFFFFFFFFFFFFFFFFA0
:10304000FFFFFFFFFFFFFFFFFFFFFFFFFFFFFFFF90
:10305000FFFFDFFFFFFFFFFFDFFFDFFFDFFFDFFF20
:10306000FFFFFFFFFFFFFFFFFFFFFFFFFFFFFFFF70
:10307000FFFFDFFFFFFFFFFFFFFFDFFFDFFF9FFF20
:10308000FFF7FEFFFFF7FFFFBFFFBFFFFFFFFFFFE1
:10309000FFF7FFF7FFFFFFFFFFFFFFFFFFFFFFFF50
:1030A000FFFFFFFFFFFFFFFFFFFFFFFFFFFFFFFF30
:1030B000FFFFFFFFFFFFFFFFFFFFFFFFFFFFFFFF20
:1030C000FFFFFFFFFFFFFFFFFFFFFFFFFFFFFFFF10
:1030D000FFFFFFFFFFFFFFFFFFFFFFFFFFFFFFFF00
:1030E000FFFFFFFFFFFFFFFFFFFFFFFFFFFFFFFFF0
:1030F000FFFFFFFFFFFFFFFFFFFFFFFFFFFFFFFFE0
:10310000FFFFFFFFFFFFFFFFFFFFFFFFFFFFFFFFCF
:10311000FFFFFFFFFFFFFFFFFFFFFFFFFFFFFFFFBF
:10312000FFFFFFFFFFFFFFFFFFFFFFFFFFFFFFFFAF
:10313000FFFFFFFFFFFFFFFFFFFFFFFFFFFFFFFF9F
:10314000FFFFFFFFFFFFFFFFFFFFFFFFFFFFFFFF8F
:10315000FFFFDFFFFFFFFFFFFFFFFFFFFFFFFFFF9F
:10316000FFFFFFFFFFFFFFFFFFFFFFFFFFFFFFFF6F
:10317000FFFFFFFFFFFFFFFFFFFFFFFFFFFFDFFF7F
:10318000FFF7FEFFFFFFFFFFFFFFFFFFFFFFFFFF58
:10319000FFFFFFFFFFFFFFFFFFFFFFFFFFFFFFFF3F
:1031A000FFFFFFFFFFFFFFFFFFFFFFFFFFFFFFFF2F
:1031B000FFFFFFFFFFFFFFFFFFFFFFFFFFFFFFFF1F
:1031C000FFFFFFFFFFFFFFFFFFFFFFFFFFFFFFFF0F
:1031D000FFFFFFFFFFFFFFFFFFFFFFFFFFFFFFFFFF
:1031E000FFFFFFFFFFFFFFFFFFFFFFFFFFFFFFFFEF
:1031F000FFFFFFFFFFFFFFFFFFFFFFFFFFFFFFFFDF
:10320000FFFFFFFFFFFFFFFFFFFFFFFFFFFFFFFFCE
:10321000FFFFFFFFFFFFFFFFFFFFFFFFFFFFFFFFBE
:10322000FFFFFFFFFFFFFFFFFFFFFFFFFFFFFFFFAE
:10323000FFFFFFFFFFFFFFFFFFFFFFFFFFFFFFFF9E
:10324000FFFFFFFFFFFFFFFFFFFFFFFFFFFFFFFF8E
:10325000DFFFDFFFFFFFFFFFFFFFFEF7FEF7FFFFD0
:10326000FFFFFFFFFFFFFFFFFFFFFFFFFFFFFFFF6E
:10327000FFFFFFFFFFFFFFFFFFFFFFFFFFF7FFFF66
:10328000FFEFFFFFDFFFFFFFFFF7FFF7FFFFDFFFAE
:10329000FFFFFDFFFFFFFFFFFFFFFFFFFFFFFFFF40
:1032A000FFFFFFFFFFFFFFFFFFFFFFFFFFFFFFFF2E
:1032B000FFFFFFFFFFFFFFFFFFFFFFFFFFFFFFFF1E
:1032C000FFFFFFFFFFFFFFFFFFFFFFFFFFFFFFFF0E
:1032D000FFFFFFFFFFFFFFFFFFFFFFFFFFFFFFFFFE
:1032E000FFFFFFFFFFFFFFFFFFFFFFFFFFFFFFFFEE
:1032F000FFFFFFFFFFFFFFFFFFFFFFFFFFFFFFFFDE
:10330000FFFFFFFFFFFFFFFFFFFFFFFFFFFFFFFFCD
:10331000FFFFFFFFFFFFFFFFFFFFFFFFFFFFFFFFBD
:10332000FFFFFFFFFFFFFFFFFFFFFFFFFFFFFFFFAD
:10333000FFFFFFFFFFFFFFFFFFFFFFFFFFFFFFFF9D
:10334000FFFFFFFFFFFFFFFFFFFFFFFFFFFFFFFF8D
:10335000FFFFFFFFFFFFFFFFFFFFFFFFFFFFFFFF7D
:10336000FFFFFFFFFFFFFFFFFFFFFFFFFFFFFFFF6D
:10337000FFFFFFFFFFFFFFFFFFFFFFFFFFFFDFFF7D
:10338000FFF7FFFFFFFFFFFFFFFFFFFFFFFFDFFF75
:10339000DFFFFEFFFFFFFFFFFFFFFFFFFFFFFFFF5E
:1033A000FFFFFFFFFFFFFFFFFFFFFFFFFFFFFFFF2D
:1033B000FFFFFFFFFFFFFFFFFFFFFFFFFFFFFFFF1D
:1033C000FFFFFFFFFFFFFFFFFFFFFFFFFFFFFFFF0D
:1033D000FFFFFFFFFFFFFFFFFFFFFFFFFFFFFFFFFD
:1033E000FFFFFFFFFFFFFFFFFFFFFFFFFFFFFFFFED
:1033F000FFFFFFFFFFFFFFFFFFFFFFFFFFFFFFFFDD
:10340000FFFFFFFFFFFFFFFFFFFFFFFFFFFFFFFFCC
:10341000FFFFFFFFFFFFFFFFFFFFFFFFFFFFFFFFBC
:10342000FFFFFFFFFFFFFFFFFFFFFFFFFFFFFFFFAC
:10343000FFFFFFFFFFFFFFFFFFFFFFFFFFFFFFFF9C
:10344000FFFFFFFFDFFFFFFFFFFFFFFFFFF7FFFFB4
:10345000FFFFFFEFFFFFFFFFFFFFFFFFFFFFFFFF8C
:10346000FFFFFFFFFFFFFFFFFFFFFFFFFFFFFFFF6C
:10347000FFFFFFFFDFFFFFFFFFF7FFFFFFFFBFFFC4
:10348000FFFFDFFFFEFFFFFFFFFFFFFFFFFFFFFF6D
:10349000FFFFFFFFFFFFFFFFFFFFFFFFFFFFFFFF3C
:1034A000FFFFFFFFFFFFFFFFFFFFFFFFFFFFFFFF2C
:1034B000FFFFFFFFFFFFFFFFFFFFFFFFFFFFFFFF1C
:1034C000FFFFFFFFFFFFFFFFFFFFFFFFFFFFFFFF0C
:1034D000FFFFFFFFFFFFFFFFFFFFFFFFFFFFFFFFFC
:1034E000FFFFFFFFFFFFFFFFFFFFFFFFFFFFFFFFEC
:1034F000FFFFFFFFFFFFFFFFFFFFFFFFFFFFFFFFDC
:10350000FFFFFFFFFFFFFFFFFFFFFFFFFFFFFFFFCB
:10351000FFFFFFFFFFFFFFFFFFFFFFFFFFFFFFFFBB
:10352000FFFFFFFFFFFFFFFFFFFFFFFFFFFFFFFFAB
:10353000FFFFFFFFFFFFFFFFFFFFFFFFFFFFFFFF9B
:10354000FFFFFFFFFFFFFFFFFFFFFFFFFFFFFFFF8B
:10355000FFFFFFEFFEFFFFFFFFFFFFFFFFFFFFFF8C
:10356000FFFFFFFFFFFFFFFFFFFFFFFFFFFFFFFF6B
:10357000FFFFFFFFFFFFFFFFFFFFFFFFFFFFDFFF7B
:10358000DFFFBFFFFEFFFFFFFFFFFFFFFFFFFFFFAC
:10359000FFFFFFFFFFFFFFFFFFFFFFFFFFFFFFFF3B
:1035A000FFFFFFFFFFFFFFFFFFFFFFFFFFFFFFFF2B
:1035B000FFFFFFFFFFFFFFFFFFFFFFFFFFFFFFFF1B
:1035C000FFFFFFFFFFFFFFFFFFFFFFFFFFFFFFFF0B
:1035D000FFFFFFFFFFFFFFFFFFFFFFFFFFFFFFFFFB
:1035E000FFFFFFFFFFFFFFFFFFFFFFFFFFFFFFFFEB
:1035F000FFFFFFFFFFFFFFFFFFFFFFFFFFFFFFFFDB
:10360000FFFFFFFFFFFFFFFFFFFFFFFFFFFFFFFFCA
:10361000FFFFFFFFFFFFFFFFFFFFFFFFFFFFFFFFBA
:10362000FFFFFFFFFFFFFFFFFFFFFFFFFFFFFFFFAA
:10363000FFFFFFFFFFFFFFFFFFFFFFFFFFFFFFFF9A
:10364000FFFFFFFFFFFFFFF7DFFFDFFFFFFFDFFFF2
:10365000DFFFFFF7FFFFFFFFFFFFFFFFFFFFFFFFA2
:10366000FFFFFFFFFFFFFFFFFFFFFFFFFFFFFFFF6A
:10367000FFFFFFFFFFFFFFFFFFFFDFFFFEF7FFFF83
:10368000FFFFFFFFFFFFFFFFFFFFFFFFFFFFFFFF4A
:10369000FFFFFFFFFFFFFFFFFFFFFFFFFFFFFFFF3A
:1036A000FFFFFFFFFFFFFFFFFFFFFFFFFFFFFFFF2A
:1036B000FFFFFFFFFFFFFFFFFFFFFFFFFFFFFFFF1A
:1036C000FFFFFFFFFFFFFFFFFFFFFFFFFFFFFFFF0A
:1036D000FFFFFFFFFFFFFFFFFFFFFFFFFFFFFFFFFA
:1036E000FFFFFFFFFFFFFFFFFFFFFFFFFFFFFFFFEA
:1036F000FFFFFFFFFFFFFFFFFFFFFFFFFFFFFFFFDA
:10370000FFFFFFFFFFFFFFFFFFFFFFFFFFFFFFFFC9
:10371000FFFFFFFFFFFFFFFFFFFFFFFFFFFFFFFFB9
:10372000FFFFFFFFFFFFFFFFFFFFFFFFFFFFFFFFA9
:10373000FFFFFFFFFFFFFFFFFFFFFFFFFFFFFFFF99
:10374000FFFFFFFFFFFFFFF7DFFFDFFFFFFFDFFFF1
:10375000DFFFFFFFFFFFFFFFFFFFFFFFFFFFFFFF99
:10376000FFFFFFFFFFFFFFFFFFFFFFFFFFFFFFFF69
:10377000FFFFFFFFFFFFFFFFFFFFDEFF7BEFFDFF10
:10378000FFFFFFEFFFF7FFFFFEFFFFFFFFFFFFFF62
:10379000FFFFFFFFFFFFFFFFFFFFFFFFFFFFFFFF39
:1037A000FFFFFFFFFFFFFFFFFFFFFFFFFFFFFFFF29
:1037B000FFFFFFFFFFFFFFFFFFFFFFFFFFFFFFFF19
:1037C000FFFFFFFFFFFFFFFFFFFFFFFFFFFFFFFF09
:1037D000FFFFFFFFFFFFFFFFFFFFFFFFFFFFFFFFF9
:1037E000FFFFFFFFFFFFFFFFFFFFFFFFFFFFFFFFE9
:1037F000FFFFFFFFFFFFFFFFFFFFFFFFFFFFFFFFD9
:10380000FFFFFFFFFFFFFFFFFFFFFFFFFFFFFFFFC8
:10381000FFFFFFFFFFFFFFFFFFFFFFFFFFFFFFFFB8
:10382000FFFFFFFFFFFFFFFFFFFFFFFFFFFFFFFFA8
:10383000FFFFFFFFFFFFFFFFFFFFFFFFFFFFFFFF98
:10384000FFFFFFFFFFFFFFFFDFFFFFFFFFFFFFFFA8
:10385000BEFFFEFFFFFFDFFFDFFFDFFFBFFFFFFF5A
:10386000DFFFFFFFFFFFFFFFFFFFFFFFFFFFFFFF88
:10387000FFFFFFFFDFFFFFFF38CE48724361067A8C
:103880006C8B1ACFDFF7FFFFDFFFFFFFFFFFFFFFAC
:10389000FFFFFEFFFFFFFFFFFFFFFFFFFFFFFFFF39
:1038A000FFFFFFFFFFFFFFFFFFFFFFFFFFFFFFFF28
:1038B000FFFFFFFFFFFFFFFFFFFFFFFFFFFFFFFF18
:1038C000FFFFFFFFFFFFFFFFFFFFFFFFFFFFFFFF08
:1038D000FFFFFFFFFFFFFFFFFFFFFFFFFFFFFFFFF8
:1038E000FFFFFFFFFFFFFFFFFFFFFFFFFFFFFFFFE8
:1038F000FFFFFFFFFFFFFFFFFFFFFFFFFFFFFFFFD8
:10390000FFFFFFFFFFFFFFFFFFFFFFFFFFFFFFFFC7
:10391000FFFFFFFFFFFFFFFFFFFFFFFFFFFFFFFFB7
:10392000FFFFFFFFFFFFFFFFFFFFFFFFFFFFFFFFA7
:10393000FFFFFFFFFFFFFFFFFFFFFFFFFFFFFFFF97
:10394000FFFFFFFFFFFFFFFFDFFFFFF7FFEFFFF7C7
:10395000FFFFFEFFFFFFFFFFFFFFFFFFFFFFFFFF78
:10396000FFFFDEFFFFFFFFFFFFFFFFFFFFFFFFFF88
:10397000FFFFFFFFBFFFBEF72030A9AACACA48C297
:1039800064814249AF9B9FFFFFFFDFF7FFF7FEF720
:10399000FEFFFEFFFFFFFFFFFFFFFFFFFFFFFFFF39
:1039A000FFFFFFFFFFFFFFFFFFFFFFFFFFFFFFFF27
:1039B000FFFFFFFFFFFFFFFFFFFFFFFFFFFFFFFF17
:1039C000FFFFFFFFFFFFFFFFFFFFFFFFFFFFFFFF07
:1039D000FFFFFFFFFFFFFFFFFFFFFFFFFFFFFFFFF7
:1039E000FFFFFFFFFFFFFFFFFFFFFFFFFFFFFFFFE7
:1039F000FFFFFFFFFFFFFFFFFFFFFFFFFFFFFFFFD7
:103A0000FFFFFFFFFFFFFFFFFFFFFFFFFFFFFFFFC6
:103A1000FFFFFFFFFFFFFFFFFFFFFFFFFFFFFFFFB6
:103A2000FFFFFFFFFFFFFFFFFFFFFFFFFFFFFFFFA6
:103A3000FFFFFFFFFFFFFFFFFFFFFFFFFFFFFFFF96
:103A4000FFFFFFFFFFFFFFFFFFF7FEEFFFF7B8D617
:103A5000EE9BEA8209834F9CF6C5FFF7FFF7FFF75D
:103A6000FFFFFEFFFFFFFFFFFFF7FFFFFFFFFFFF6F
:103A7000FFFFFFFFFEEFB5CD89BAE9E2E9EAE9F21F
:103A80002BFBE9DA2389C6691CE7FFF7FFFFDFFF9D
:103A9000FFFFFFFFFFFFFFFFFFFFFFFFFFFFFFFF36
:103AA000FFFFFFFFFFFFFFFFFFFFFFFFFFFFFFFF26
:103AB000FFFFFFFFFFFFFFFFFFFFFFFFFFFFFFFF16
:103AC000FFFFFFFFFFFFFFFFFFFFFFFFFFFFFFFF06
:103AD000FFFFFFFFFFFFFFFFFFFFFFFFFFFFFFFFF6
:103AE000FFFFFFFFFFFFFFFFFFFFFFFFFFFFFFFFE6
:103AF000FFFFFFFFFFFFFFFFFFFFFFFFFFFFFFFFD6
:103B0000FFFFFFFFFFFFFFFFFFFFFFFFFFFFFFFFC5
:103B1000FFFFFFFFFFFFFFFFFFFFFFFFFFFFFFFFB5
:103B2000FFFFFFFFFFFFFFFFFFFFFFFFFFFFFFFFA5
:103B3000FFFFFFFFFFFFFFFFFFFFFFFFFFFFFFFF95
:103B4000FFFFFFFFDFFFFFFFFFF7FFFF90AC02511A
:103B5000A58108A2259AE4894259E659919CFEFF65
:103B6000FFF7FFF7FFFFFEFFFFFFFFF7FFFFFFFF7E
:103B7000FFFFFFFFFFEFC559EBFAA7F2C7F2C8F24C
:103B800088FA88FA09FB87B2E24017C6DFF7FFFF21
:103B9000DFFFDFFFFFFFFFFFFFFFFFFFFFFFFFFF75
:103BA000FFFFFFFFFFFFFFFFFFFFFFFFFFFFFFFF25
:103BB000FFFFFFFFFFFFFFFFFFFFFFFFFFFFFFFF15
:103BC000FFFFFFFFFFFFFFFFFFFFFFFFFFFFFFFF05
:103BD000FFFFFFFFFFFFFFFFFFFFFFFFFFFFFFFFF5
:103BE000FFFFFFFFFFFFFFFFFFFFFFFFFFFFFFFFE5
:103BF000FFFFFFFFFFFFFFFFFFFFFFFFFFFFFFFFD5
:103C0000FFFFFFFFFFFFFFFFFFFFFFFFFFFFFFFFC4
:103C1000FFFFFFFFFFFFFFFFFFFFFFFFFFFFFFFFB4
:103C2000FFFFFFFFFFFFFFFFFFFFFFFFFFFFFFFFA4
:103C3000FFFFFFFFFFFFFFFFFFFFFFFFFFFFFFFF94
:103C4000FFFFFFFFFFFFFFFFFFF77DFF00486CDB7B
:103C50002BEBCBFA2AF32AF309EBA9CA6479A5590D
:103C600058CEFFF77DFFFFFFFFFFFFF7FFFFFFFFCE
:103C7000FFFFFFFFFFEFA038A9FAC7FAC7F2E8FA83
:103C800087FAA7FAC7F2E8EA09CB8148B6C5FFFF71
:103C9000DFFFDFFFFFFFFFFFFFFFFFFFFFFFFFFF74
:103CA000FFFFFFFFFFFFFFFFFFFFFFFFFFFFFFFF24
:103CB000FFFFFFFFFFFFFFFFFFFFFFFFFFFFFFFF14
:103CC000FFFFFFFFFFFFFFFFFFFFFFFFFFFFFFFF04
:103CD000FFFFFFFFFFFFFFFFFFFFFFFFFFFFFFFFF4
:103CE000FFFFFFFFFFFFFFFFFFFFFFFFFFFFFFFFE4
:103CF000FFFFFFFFFFFFFFFFFFFFFFFFFFFFFFFFD4
:103D0000FFFFFFFFFFFFFFFFFFFFFFFFFFFFFFFFC3
:103D1000FFFFFFFFFFFFFFFFFFFFFFFFFFFFFFFFB3
:103D2000FFFFFFFFFFFFFFFFFFFFFFFFFFFFFFFFA3
:103D3000FFFFFFFFFFFFFFFFFFFFFFFFFFFFFFFF93
:103D4000FFFFFFFFFFFFDFFFFFF78E9B0BE3A8F2F4
:103D500067F269FAA8FA67FA88FA67FAE9EAA9BA8B
:103D6000E3502C83BEFF9DFFFFFFFFFFFFFFFFFF20
:103D7000FFFFFFFFFFF7A030EAFAE7EAC7F2A8F279
:103D8000C7F2E7F2E7EAA6FAC8FA6CE3C35096BDB9
:103D9000FFFFDFFFFFFFFFFFFFFFFFFFFFFFFFFF53
:103DA000FFFFFFFFFFFFFFFFFFFFFFFFFFFFFFFF23
:103DB000FFFFFFFFFFFFFFFFFFFFFFFFFFFFFFFF13
:103DC000FFFFFFFFFFFFFFFFFFFFFFFFFFFFFFFF03
:103DD000FFFFFFFFFFFFFFFFFFFFFFFFFFFFFFFFF3
:103DE000FFFFFFFFFFFFFFFFFFFFFFFFFFFFFFFFE3
:103DF000FFFFFFFFFFFFFFFFFFFFFFFFFFFFFFFFD3
:103E0000FFFFFFFFFFFFFFFFFFFFFFFFFFFFFFFFC2
:103E1000FFFFFFFFFFFFFFFFFFFFFFFFFFFFFFFFB2
:103E2000FFFFFFFFFFFFFFFFFFFFFFFFFFFFFFFFA2
:103E3000FFFFFFFFFFFFFFFFFFFFFFFFFFFFFFFF92
:103E4000FFFFFFFFFFFFFFFFFFF740382BFBA7FA45
:103E5000C7F2A7FAC8F2A8FAA7FAA7FAC8FAC9EAF5
:103E60002AE3439986595DFFFFFFDFF7FFFFFFFF5E
:103E7000FFFFFFFFFFF70139E9FAE7E2C8F2A9FA0D
:103E800008F3C6EAC8EAA7F2A7FA87EA4BDB815033
:103E900079DEFFFFFFFFFFFFFFFFFFFFFFFFFFFFD9
:103EA000FFFFFFFFFFFFFFFFFFFFFFFFFFFFFFFF22
:103EB000FFFFFFFFFFFFFFFFFFFFFFFFFFFFFFFF12
:103EC000FFFFFFFFFFFFFFFFFFFFFFFFFFFFFFFF02
:103ED000FFFFFFFFFFFFFFFFFFFFFFFFFFFFFFFFF2
:103EE000FFFFFFFFFFFFFFFFFFFFFFFFFFFFFFFFE2
:103EF000FFFFFFFFFFFFFFFFFFFFFFFFFFFFFFFFD2
:103F0000FFFFFFFFFFFFFFFFFFFFFFFFFFFFFFFFC1
:103F1000FFFFFFFFFFFFFFFFFFFFFFFFFFFFFFFFB1
:103F2000FFFFFFFFFFFFFFFFFFFFFFFFFFFFFFFFA1
:103F3000FFFFFFFFFFFFFFFFFFFFFFFFFFFFFFFF91
:103F4000FFFFFFFFFFFFFFFFFFEF0030C9F2C6F2E8
:103F500026E327EBC8EAE8EAE8E208EBC7EAC7F29B
:103F6000A7FAC8FAAB824541DADEFFFFFFFFFFFF89
:103F7000FFFFFFFFFFF7E030C9FA07E3A8F2A9FA55
:103F8000C8EAE7F288F2E9F2A7F2C7FAA7F24BD340
:103F9000E2385DD7FFFFFFFFFFFFFFFFFFFFFFFFDF
:103FA000FFFFFFFFFFFFFFFFFFFFFFFFFFFFFFFF21
:103FB000FFFFFFFFFFFFFFFFFFFFFFFFFFFFFFFF11
:103FC000FFFFFFFFFFFFFFFFFFFFFFFFFFFFFFFF01
:103FD000FFFFFFFFFFFFFFFFFFFFFFFFFFFFFFFFF1
:103FE000FFFFFFFFFFFFFFFFFFFFFFFFFFFFFFFFE1
:103FF000FFFFFFFFFFFFFFFFFFFFFFFFFFFFFFFFD1
:10400000FFFFFFFFFFFFFFFFFFFFFFFFFFFFFFFFC0
:10401000FFFFFFFFFFFFFFFFFFFFFFFFFFFFFFFFB0
:10402000FFFFFFFFFFFFFFFFFFFFFFFFFFFFFFFFA0
:10403000FFFFFFFFFFFFFFFFFFFFFFFFFFFFFFFF90
:10404000FFFFFFFFFFF7DFFFDFFF8038C7FACAF28D
:1040500087F2E7EAC8F2C8F2C8F2C8F2C8F2C8F2BA
:10406000C8F2C8F208FB46D2A150B9D6FFF7BFFF8D
:10407000DFFFFFFFFFF7C030ABFA07E3E6F2A9FA74
:10408000A9F2C6FAC8F2C8F2E8F2C8F2A8F2E9F258
:1040900066CA0070FFFFFDFFFFEFBFFFDFFFFFF706
:1040A000DFFFBFFFFFFFFFFFFFFFFFFFFFFFFFFF80
:1040B000FFFFFFFFFFFFFFFFFFFFFFFFFFFFFFFF10
:1040C000FFFFFFFFFFFFFFFFFFFFFFFFFFFFFFFF00
:1040D000FFFFFFFFFFFFFFFFFFFFFFFFFFFFFFFFF0
:1040E000FFFFFFFFFFFFFFFFFFFFFFFFFFFFFFFFE0
:1040F000FFFFFFFFFFFFFFFFFFFFFFFFFFFFFFFFD0
:10410000FFFFFFFFFFFFFFFFFFFFFFFFFFFFFFFFBF
:10411000FFFFFFFFFFFFFFFFFFFFFFFFFFFFFFFFAF
:10412000FFFFFFFFFFFFFFFFFFFFFFFFFFFFFFFF9F
:10413000FFFFFFFFFFFFFFFFFFFFFFFFFFFFFFFF8F
:10414000FFFFFFFFFFFFBFFFFFFFC148C7FACAF233
:10415000A7F2E7EAC8F2C8F2C8F2C8F2C8F2C8F299
:10416000C8F2C8F2E7F2E9EACACAC35058CEFFF76C
:10417000DFFFDFFFFFF725520CFBE7E2C7FAC9F2CA
:10418000A9FAE7F2C8F2C8F2E8F2C8F2A8F2C8F257
:104190002AEB25BA4762FEF7FFFFDFFFFFFFFFFFB5
:1041A000FFFF9FFFFFFFFFFFFFFFFFFFFFFFFFFF7F
:1041B000FFFFFFFFFFFFFFFFFFFFFFFFFFFFFFFF0F
:1041C000FFFFFFFFFFFFFFFFFFFFFFFFFFFFFFFFFF
:1041D000FFFFFFFFFFFFFFFFFFFFFFFFFFFFFFFFEF
:1041E000FFFFFFFFFFFFFFFFFFFFFFFFFFFFFFFFDF
:1041F000FFFFFFFFFFFFFFFFFFFFFFFFFFFFFFFFCF
:10420000FFFFFFFFFFFFFFFFFFFFFFFFFFFFFFFFBE
:10421000FFFFFFFFFFFFFFFFFFFFFFFFFFFFFFFFAE
:10422000FFFFFFFFFFFFFFFFFFFFFFFFFFFFFFFF9E
:10423000FFFFFFFFFFFFFFFFFFFFFFFFFFFFFFFF8E
:10424000FFFFFFFFFFFFDFFFFFFFE250A6F2A9EA3B
:10425000A8F2C7EAC8F2C8F2C8F2C8F2C8F2C8F2B7
:10426000C8F2C8F229F3A8EACAFAEBDAC140BBDF08
:10427000FFEFBFFFFFF7CD734BE3E8F2A7FAC8F2F9
:10428000A8FA07E3C8F2C8F2E8F2C8F2C8FA88F25E
:10429000E9EA09E32271D39CFFFFFFFFBFF7FFFFAD
:1042A000FFFFFFFFFFFFFFFFFFFFFFFFFFFFFFFF1E
:1042B000FFFFFFFFFFFFFFFFFFFFFFFFFFFFFFFF0E
:1042C000FFFFFFFFFFFFFFFFFFFFFFFFFFFFFFFFFE
:1042D000FFFFFFFFFFFFFFFFFFFFFFFFFFFFFFFFEE
:1042E000FFFFFFFFFFFFFFFFFFFFFFFFFFFFFFFFDE
:1042F000FFFFFFFFFFFFFFFFFFFFFFFFFFFFFFFFCE
:10430000FFFFFFFFFFFFFFFFFFFFFFFFFFFFFFFFBD
:10431000FFFFFFFFFFFFFFFFFFFFFFFFFFFFFFFFAD
:10432000FFFFFFFFFFFFFFFFFFFFFFFFFFFFFFFF9D
:10433000FFFFFFFFFFFFFFFFFFFFFFFFFFFFFFFF8D
:10434000FFFFFFFFFFFFDFFFFFF7814886F2C8EAAC
:10435000A7F2C7F2C8F2C8F2C8F2C8F2C8F2C8F2AF
:10436000C8F2C8F2A8EAC8EA88FAA9FAA8BA42418B
:10437000DDEFFFFFFFFF17B6C9B2C7FAA8FAA8FA28
:10438000C8F208E3C8F2C8F2E8F2C8F2C8FAA8F224
:10439000C8EA09EB0AE321389EFFDEFFFFFFFFF7C3
:1043A000FFFFFFFFFFFFFFFFFFFFFFFFFFFFFFFF1D
:1043B000FFFFFFFFFFFFFFFFFFFFFFFFFFFFFFFF0D
:1043C000FFFFFFFFFFFFFFFFFFFFFFFFFFFFFFFFFD
:1043D000FFFFFFFFFFFFFFFFFFFFFFFFFFFFFFFFED
:1043E000FFFFFFFFFFFFFFFFFFFFFFFFFFFFFFFFDD
:1043F000FFFFFFFFFFFFFFFFFFFFFFFFFFFFFFFFCD
:10440000FFFFFFFFFFFFFFFFFFFFFFFFFFFFFFFFBC
:10441000FFFFFFFFFFFFFFFFFFFFFFFFFFFFFFFFAC
:10442000FFFFFFFFFFFFFFFFFFFFFFFFFFFFFFFF9C
:10443000FFFFFFFFFFFFFFFFFFFFFFFFFFFFFFFF8C
:10444000FFFFFFFFFFFFDFFFFFF7203887FAC8EA13
:10445000A7F2C8F2C8F2C8F2C8F2C8F2C8F2C8F2AD
:10446000C8F2C8F2A8F2E8F2C7F2A7F2EAFA89BAEB
:104470002341FEF79FEF5EE7C58186F2C8F2A8FAF6
:1044800008E3E8F2C8F2C8F2E8F2C8F2A7FAC8FAFC
:10449000C9FAA8EA88FACACAC751FFFFBDF7FFF7F1
:1044A000FFFFFFF7FFFFFFFFFFFFFFFFFFFFFFFF24
:1044B000FFFFFFFFFFFFFFFFFFFFFFFFFFFFFFFF0C
:1044C000FFFFFFFFFFFFFFFFFFFFFFFFFFFFFFFFFC
:1044D000FFFFFFFFFFFFFFFFFFFFFFFFFFFFFFFFEC
:1044E000FFFFFFFFFFFFFFFFFFFFFFFFFFFFFFFFDC
:1044F000FFFFFFFFFFFFFFFFFFFFFFFFFFFFFFFFCC
:10450000FFFFFFFFFFFFFFFFFFFFFFFFFFFFFFFFBB
:10451000FFFFFFFFFFFFFFFFFFFFFFFFFFFFFFFFAB
:10452000FFFFFFFFFFFFFFFFFFFFFFFFFFFFFFFF9B
:10453000FFFFFFFFFFFFFFFFFFFFFFFFFFFFFFFF8B
:10454000FFFFFFFFFFFFFFFFFFF70028C8FAE7E2CA
:10455000A7FAE8F2C8F2C8F2C8F2C8F2C8F2C8F284
:10456000C8F2C8F2A8F2C8F2E6EA07EB47FAAAFADC
:10457000C591E86AFFFFBFF72048E7FAE7EAA9FA22
:10458000E8EAE7F2C8F2C8F2E8F2C7F2C8FA87FA36
:10459000A8F2A8F267FAE8FA0369F7CDFFFFFFFF78
:1045A000FFFFFFFFFFFFFFFFFFFFFFFFFFFFFFFF1B
:1045B000FFFFFFFFFFFFFFFFFFFFFFFFFFFFFFFF0B
:1045C000FFFFFFFFFFFFFFFFFFFFFFFFFFFFFFFFFB
:1045D000FFFFFFFFFFFFFFFFFFFFFFFFFFFFFFFFEB
:1045E000FFFFFFFFFFFFFFFFFFFFFFFFFFFFFFFFDB
:1045F000FFFFFFFFFFFFFFFFFFFFFFFFFFFFFFFFCB
:10460000FFFFFFFFFFFFFFFFFFFFFFFFFFFFFFFFBA
:10461000FFFFFFFFFFFFFFFFFFFFFFFFFFFFFFFFAA
:10462000FFFFFFFFFFFFFFFFFFFFFFFFFFFFFFFF9A
:10463000FFFFFFFFFFFFFFFFFFFFFFFFFFFFFFFF8A
:10464000FFFFFFFFFEF7FFFFDFF70020E9FAE7E2D9
:10465000A7FAE8F2C8F2C8F2C8F2C8F2C8F2C8F283
:10466000C8F2C8F2A7F2E8F2E7EA07EBE9FA89FA3A
:104670002BEBA07054C5FFFF0028C7F207E3A9FA8F
:10468000C8F2E6F2C8F2C8F2E8F2C7F2C8FAA7FA2E
:10469000C8FAE9FAE9FAA7FA4BEB0020FFFFFFFF9F
:1046A000DFF7DFFFFFFFFFFFFFFFFFFFFFFFFFFF62
:1046B000FFFFFFFFFFFFFFFFFFFFFFFFFFFFFFFF0A
:1046C000FFFFFFFFFFFFFFFFFFFFFFFFFFFFFFFFFA
:1046D000FFFFFFFFFFFFFFFFFFFFFFFFFFFFFFFFEA
:1046E000FFFFFFFFFFFFFFFFFFFFFFFFFFFFFFFFDA
:1046F000FFFFFFFFFFFFFFFFFFFFFFFFFFFFFFFFCA
:10470000FFFFFFFFFFFFFFFFFFFFFFFFFFFFFFFFB9
:10471000FFFFFFFFFFFFFFFFFFFFFFFFFFFFFFFFA9
:10472000FFFFFFFFFFFFFFFFFFFFFFFFFFFFFFFF99
:10473000FFFFFFFFFFFFFFFFFFFFFFFFFFFFFFFF89
:10474000FFFFFFFFFEF7DFFFFFFF8441EAFAE7EA22
:10475000C7FAC8F2C8F2C8F2C8F2C8F2C8F2C8F282
:10476000C8F2C8F2E8FAC7EAE8F2A7F2A7F2C8F27C
:10477000C9F2EAFA0038DFFFC33029FB27DBA9FAC8
:10478000A8F2E6F2C8F2C8F2E8F2E7F2C7F2C8FA15
:10479000A7F2A7F2C8F2A7F286F2479A6E7BDFFF74
:1047A000FFFFDFFFFFFFFFFFFFFFFFFFFFFFFFFF39
:1047B000FFFFFFFFFFFFFFFFFFFFFFFFFFFFFFFF09
:1047C000FFFFFFFFFFFFFFFFFFFFFFFFFFFFFFFFF9
:1047D000FFFFFFFFFFFFFFFFFFFFFFFFFFFFFFFFE9
:1047E000FFFFFFFFFFFFFFFFFFFFFFFFFFFFFFFFD9
:1047F000FFFFFFFFFFFFFFFFFFFFFFFFFFFFFFFFC9
:10480000FFFFFFFFFFFFFFFFFFFFFFFFFFFFFFFFB8
:10481000FFFFFFFFFFFFFFFFFFFFFFFFFFFFFFFFA8
:10482000FFFFFFFFFFFFFFFFFFFFFFFFFFFFFFFF98
:10483000FFFFFFFFFFFFFFFFFFFFFFFFFFFFFFFF88
:10484000FFFFFFFFFEFFFFFFBFFF8C734CEBA7EAEC
:10485000E7F2A8F2C8F2C8F2C8F2C8F2C8F2C8F289
:10486000C8F2C8F2A7FAE8EAC8F2A8FAA8FAE8EA91
:10487000C7F287FAA8CA8759718CCADAE6E288F2C9
:10488000A8F2C7FAC8F2C8F2C8F2C7F2C7F2C8F273
:10489000C8F2C8F2E8F2A8FAA6FAE9E24130DFF776
:1048A000DFFFDFFFFFFFFFFFFFFFFFFFFFFFFFFF58
:1048B000FFFFFFFFFFFFFFFFFFFFFFFFFFFFFFFF08
:1048C000FFFFFFFFFFFFFFFFFFFFFFFFFFFFFFFFF8
:1048D000FFFFFFFFFFFFFFFFFFFFFFFFFFFFFFFFE8
:1048E000FFFFFFFFFFFFFFFFFFFFFFFFFFFFFFFFD8
:1048F000FFFFFFFFFFFFFFFFFFFFFFFFFFFFFFFFC8
:10490000FFFFFFFFFFFFFFFFFFFFFFFFFFFFFFFFB7
:10491000FFFFFFFFFFFFFFFFFFFFFFFFFFFFFFFFA7
:10492000FFFFFFFFFFFFFFFFFFFFFFFFFFFFFFFF97
:10493000FFFFFFFFFFFFFFFFFFFFFFFFFFFFFFFF87
:10494000FFFFFFFFFEFFFFFFBFFFF6BD28AAC8FA6B
:10495000E7EAA8FAC8F2C8F2C8F2C8F2C8F2C8F288
:10496000C8F2C8F2A8FAC8F2C8F2A8FAA8FAC8F2BF
:10497000C7F2C7F2C8EA0379D294A69187FAA7EAE8
:10498000A8F2C8FAC8FAC8F2C8F2C7EAC8F2C8F270
:10499000C8F2C8F2E8F2C8F2C7F2A8FA88B2695AB7
:1049A000DFFFFFFFFFFFDFFFFFFFFFFFFFFFFFFF57
:1049B000FFFFFFFFFFFFFFFFFFFFFFFFFFFFFFFF07
:1049C000FFFFFFFFFFFFFFFFFFFFFFFFFFFFFFFFF7
:1049D000FFFFFFFFFFFFFFFFFFFFFFFFFFFFFFFFE7
:1049E000FFFFFFFFFFFFFFFFFFFFFFFFFFFFFFFFD7
:1049F000FFFFFFFFFFFFFFFFFFFFFFFFFFFFFFFFC7
:104A0000FFFFFFFFFFFFFFFFFFFFFFFFFFFFFFFFB6
:104A1000FFFFFFFFFFFFFFFFFFFFFFFFFFFFFFFFA6
:104A2000FFFFFFFFFFFFFFFFFFFFFFFFFFFFFFFF96
:104A3000FFFFFFFFFFFFFFFFFFFFFFFFFFFFFFFF86
:104A4000FFFFFFFFFEFFDFFFBFFFDDF7036167F240
:104A5000E7E2A8FAC8F2C8F2C8F2C8F2C8F2C8F28F
:104A6000C8F2C8F2C8F2A8FAA8FAC8F2C8F2C8F2A6
:104A7000C8F2E7EAC7EA4AEB0028E34847FA27EB1F
:104A8000A8FA88F2C8F2C8F2C8F2C8F2E8F2E8F26E
:104A9000E8F2C8F2C8F2C7F2A8F2A8FAA7E24040CA
:104AA000DFF7FFFFBEF7FFFFFFFFFFFFFFFFFFFF87
:104AB000FFFFFFFFFFFFFFFFFFFFFFFFFFFFFFFF06
:104AC000FFFFFFFFFFFFFFFFFFFFFFFFFFFFFFFFF6
:104AD000FFFFFFFFFFFFFFFFFFFFFFFFFFFFFFFFE6
:104AE000FFFFFFFFFFFFFFFFFFFFFFFFFFFFFFFFD6
:104AF000FFFFFFFFFFFFFFFFFFFFFFFFFFFFFFFFC6
:104B0000FFFFFFFFFFFFFFFFFFFFFFFFFFFFFFFFB5
:104B1000FFFFFFFFFFFFFFFFFFFFFFFFFFFFFFFFA5
:104B2000FFFFFFFFFFFFFFFFFFFFFFFFFFFFFFFF95
:104B3000FFFFFFFFFFFFFFFFFFFFFFFFFFFFFFFF85
:104B4000FFFFFFFFFFFFDFFFFFFFFFFF002888EAF7
:104B5000E8E287FAC8F2C8F2C8F2C8F2C8F2C8F2AE
:104B6000C8F2C8F2E9EAA8FAA8FAC8F2E8EAC8F274
:104B7000C8F2C8F2E7F2C6EACBC200184BF3C6EAA5
:104B8000A8FAC9FAC8F2C8F2C8F2C8F2E8F2E8F224
:104B9000E8F2E8F2C8F2E7F2A8FAC8F2C8FA67BA8F
:104BA000EA62FFEFFFFFDFFFFFFFDFFFFFFFFFFF17
:104BB000FFFFFFFFFFFFFFFFFFFFFFFFFFFFFFFF05
:104BC000FFFFFFFFFFFFFFFFFFFFFFFFFFFFFFFFF5
:104BD000FFFFFFFFFFFFFFFFFFFFFFFFFFFFFFFFE5
:104BE000FFFFFFFFFFFFFFFFFFFFFFFFFFFFFFFFD5
:104BF000FFFFFFFFFFFFFFFFFFFFFFFFFFFFFFFFC5
:104C0000FFFFFFFFFFFFFFFFFFFFFFFFFFFFFFFFB4
:104C1000FFFFFFFFFFFFFFFFFFFFFFFFFFFFFFFFA4
:104C2000FFFFFFFFFFFFFFFFFFFFFFFFFFFFFFFF94
:104C3000FFFFFFFFFFFFFFFFFFFFFFFFFFFFFFFF84
:104C4000FFFFFFFFFFFFFFFFFFFFDEFF82204BF3B1
:104C5000E8EAC8F2C8F2C8F2C8F2C8F2C8F2C8F26C
:104C6000C8F2C8F2C9EAC8F2C8F2E7F2E7F2C8F23D
:104C7000C8F2C8F2E8F207F3AAF261588BC387FAC8
:104C8000C8F2A9FAC8F2C8F2C8F2C8F2C8F2C8F26B
:104C9000C8F2C8F2C8FAC8F2C8F2C8F2C8FA46D2D6
:104CA0000038FFF7DFFFFFFFFFFFFFFFFFFFFFFF02
:104CB000FFFFFFFFFFFFFFFFFFFFFFFFFFFFFFFF04
:104CC000FFFFFFFFFFFFFFFFFFFFFFFFFFFFFFFFF4
:104CD000FFFFFFFFFFFFFFFFFFFFFFFFFFFFFFFFE4
:104CE000FFFFFFFFFFFFFFFFFFFFFFFFFFFFFFFFD4
:104CF000FFFFFFFFFFFFFFFFFFFFFFFFFFFFFFFFC4
:104D0000FFFFFFFFFFFFFFFFFFFFFFFFFFFFFFFFB3
:104D1000FFFFFFFFFFFFFFFFFFFFFFFFFFFFFFFFA3
:104D2000FFFFFFFFFFFFFFFFFFFFFFFFFFFFFFFF93
:104D3000FFFFFFFFFFFFFFFFFFFFFFFFFFFFFFFF83
:104D4000FFFFFFFFFFFFFFFFFEFFFFFFD08309CB49
:104D5000A8FAE8EAC8F2C8F2C8F2C8F2C8F2C8F283
:104D6000C8F2C8F2C8F2E8EAE8EAC7F2C7F2C8F245
:104D7000C8F2C8F2C8FAE7F267FACAD22038AAFA2B
:104D8000E8EAA8FAE8F2C8F2C8F2C8F2C8F2C8F233
:104D9000C8F2C8F2A8FAC9F2E7EAC8F287EAC7F28D
:104DA00088BA0B63DFFFFFFFFFFFFFFFFFFFFFFF7F
:104DB000FFFFFFFFFFFFFFFFFFFFFFFFFFFFFFFF03
:104DC000FFFFFFFFFFFFFFFFFFFFFFFFFFFFFFFFF3
:104DD000FFFFFFFFFFFFFFFFFFFFFFFFFFFFFFFFE3
:104DE000FFFFFFFFFFFFFFFFFFFFFFFFFFFFFFFFD3
:104DF000FFFFFFFFFFFFFFFFFFFFFFFFFFFFFFFFC3
:104E0000FFFFFFFFFFFFFFFFFFFFFFFFFFFFFFFFB2
:104E1000FFFFFFFFFFFFFFFFFFFFFFFFFFFFFFFFA2
:104E2000FFFFFFFFFFFFFFFFFFFFFFFFFFFFFFFF92
:104E3000FFFFFFFFFFFFFFFFFFFFFFFFFFFFFFFF82
:104E4000FFFFFFFFFFFFFFFFFDF7FFFFFEE66279B9
:104E500068FAE7DAC8F2C8F2C8F2C8F2C8F2C8F2D3
:104E6000C8F2C8F2C8F2C8F2C8F2C8F2C8F2C8F272
:104E7000C8F2C8FAC9FAA7F2C6F2E9FAC2700BD3AF
:104E800087F2E7EAE8EAC8F2C8F2C8F2C8F2C8F264
:104E9000C8F2C8F2C8F2A8FAE8EAE7EAC7FAA8FA3C
:104EA00047C20038FFFF7DEFDFFFFFFFFFFFFFFF7F
:104EB000FFFFFFFFFFFFFFFFFFFFFFFFFFFFFFFF02
:104EC000FFFFFFFFFFFFFFFFFFFFFFFFFFFFFFFFF2
:104ED000FFFFFFFFFFFFFFFFFFFFFFFFFFFFFFFFE2
:104EE000FFFFFFFFFFFFFFFFFFFFFFFFFFFFFFFFD2
:104EF000FFFFFFFFFFFFFFFFFFFFFFFFFFFFFFFFC2
:104F0000FFFFFFFFFFFFFFFFFFFFFFFFFFFFFFFFB1
:104F1000FFFFFFFFFFFFFFFFFFFFFFFFFFFFFFFFA1
:104F2000FFFFFFFFFFFFFFFFFFFFFFFFFFFFFFFF91
:104F3000FFFFFFFFFFFFFFFFFFFFFFFFFFFFFFFF81
:104F4000FFFFFFFFDFFFFFFFFEFFFFFFDFFF003878
:104F500049FA07DBC8F2C8F2C8F2C8F2C8F2C8F2D0
:104F6000C8F2C8F2C7F2C7FAA8FAC8FAE8F2E8EA43
:104F7000C7F2C7FAC9EAA8FA26EB86F2EDEA0030D2
:104F8000A9FA27E3E7EAC8F2C8F2A8FAC8F2C8F219
:104F9000C8F2A8FAE8F2C8FAC8F207E3E7FA89FA11
:104FA00068C225B2F39CFFFFFFFFFFFFFFFFFFFF7B
:104FB000FFFFFFFFFFFFFFFFFFFFFFFFFFFFFFFF01
:104FC000FFFFFFFFFFFFFFFFFFFFFFFFFFFFFFFFF1
:104FD000FFFFFFFFFFFFFFFFFFFFFFFFFFFFFFFFE1
:104FE000FFFFFFFFFFFFFFFFFFFFFFFFFFFFFFFFD1
:104FF000FFFFFFFFFFFFFFFFFFFFFFFFFFFFFFFFC1
:10500000FFFFFFFFFFFFFFFFFFFFFFFFFFFFFFFFB0
:10501000FFFFFFFFFFFFFFFFFFFFFFFFFFFFFFFFA0
:10502000FFFFFFFFFFFFFFFFFFFFFFFFFFFFFFFF90
:10503000FFFFFFFFFFFFFFFFFFFFFFFFFFFFFFFF80
:10504000FFFFFFFFDFFFFFFFFFFFFFFFFFF7423123
:105050008CD388FAC8F2C8FAE7EAC8F288FAA8FA44
:1050600087FA27E3C8F2C8F2C8F2C8F2C8F2C8F259
:10507000C8F2C8F2A8FAA8FAE8EAC8FAA8F2A05852
:105080004ABB6BFA08F3E8FAC4F268F28AFA07EB53
:1050900007E3C8F2C8F2C8F2C8F2C8F2C8F2C8EA18
:1050A000A7E205D20030FFEFBFFFFEFFFEFFFFFFCC
:1050B000FFFFFFFFFFFFFFFFFFFFFFFFFFFFFFFF00
:1050C000FFFFFFFFFFFFFFFFFFFFFFFFFFFFFFFFF0
:1050D000FFFFFFFFFFFFFFFFFFFFFFFFFFFFFFFFE0
:1050E000FFFFFFFFFFFFFFFFFFFFFFFFFFFFFFFFD0
:1050F000FFFFFFFFFFFFFFFFFFFFFFFFFFFFFFFFC0
:10510000FFFFFFFFFFFFFFFFFFFFFFFFFFFFFFFFAF
:10511000FFFFFFFFFFFFFFFFFFFFFFFFFFFFFFFF9F
:10512000FFFFFFFFFFFFFFFFFFFFFFFFFFFFFFFF8F
:10513000FFFFFFFFFFFFFFFFFFFFFFFFFFFFFFFF7F
:10514000FFFFFFFFFFFFFFFFFFFFFFFFDEF794BD45
:1051500047A2A9F2E8F287F209F3E8F2C8F2A8FA46
:10516000C8F2C7F2C8F2C8F2C8F2C8F2C8F2C8F270
:10517000C8F2C8F2C8F2A8FAE8EAC8FA88F2AAD3D4
:105180002058CBEAA8EAC7F2C5FAE9F2A9FAE7EA99
:10519000E8EAC8F2C8F2C8F2C8F2C8F2C8F2C8EA2F
:1051A000C8EA05D243713CDFFFFFFEFFFEFFFFFFB1
:1051B000FFF7FFFFFFFFFFFFFFFFFFFFFFFFFFFF07
:1051C000FFFFFFFFFFFFFFFFFFFFFFFFFFFFFFFFEF
:1051D000FFFFFFFFFFFFFFFFFFFFFFFFFFFFFFFFDF
:1051E000FFFFFFFFFFFFFFFFFFFFFFFFFFFFFFFFCF
:1051F000FFFFFFFFFFFFFFFFFFFFFFFFFFFFFFFFBF
:10520000FFFFFFFFFFFFFFFFFFFFFFFFFFFFFFFFAE
:10521000FFFFFFFFFFFFFFFFFFFFFFFFFFFFFFFF9E
:10522000FFFFFFFFFFFFFFFFFFFFFFFFFFFFFFFF8E
:10523000FFFFFFFFFFFFFFFFFFFFFFFFFFFFFFFF7E
:10524000FFFFFFFFFFFFFFFFFFFFDFFFFFFFDDFFB0
:1052500000300BE3C7FAE9FAA8F2C8EAE8EAA8FACC
:10526000E8EAA7FAC8F2C8F2C8F2C8F2C8F2C8F26F
:10527000C8F2C8F2C8F2C8F2C8F2C8F2A8F2E9DA75
:1052800000608CD388EAC6EAA7FA29E3A9F2E7F21C
:10529000A8FAA8FAC8F2C8F2C8F2C8F2C8F2C8EA76
:1052A000E8F225D2C8AA295ADFFFFFFFFEFFFFFF61
:1052B000FFF7FFFFFFFFFFFFFFFFFFFFFFFFFFFF06
:1052C000FFFFFFFFFFFFFFFFFFFFFFFFFFFFFFFFEE
:1052D000FFFFFFFFFFFFFFFFFFFFFFFFFFFFFFFFDE
:1052E000FFFFFFFFFFFFFFFFFFFFFFFFFFFFFFFFCE
:1052F000FFFFFFFFFFFFFFFFFFFFFFFFFFFFFFFFBE
:10530000FFFFFFFFFFFFFFFFFFFFFFFFFFFFFFFFAD
:10531000FFFFFFFFFFFFFFFFFFFFFFFFFFFFFFFF9D
:10532000FFFFFFFFFFFFFFFFFFFFFFFFFFFFFFFF8D
:10533000FFFFFFFFFFFFFFFFFFFFFFFFFFFFFFFF7D
:10534000FFFFFFFFFFFFFFFFFFFFDFFFFFFFFFFF8D
:1053500064598DCBE7F2C8EA89FAE7E2E7EAC8F2D6
:10536000E8F2C8FAC8F2C8F2C8F2C8F2C8F2C8F245
:10537000C8F2C8F2C8F2E8EAC8F2C8F2C8F288F285
:1053800088CAE379EAF2C6EA88FA08E3C8F2C8F202
:10539000A8FAA8FAC8F2C8F2C8F2C8F2C8F2C8EA75
:1053A000E8F266DA67B20030FFFFFFFFFFFFFFFFA2
:1053B000FFF7DFFFFFFFFFFFFFFFFFFFFFFFFFFF25
:1053C000FFFFFFFFFFFFFFFFFFFFFFFFFFFFFFFFED
:1053D000FFFFFFFFFFFFFFFFFFFFFFFFFFFFFFFFDD
:1053E000FFFFFFFFFFFFFFFFFFFFFFFFFFFFFFFFCD
:1053F000FFFFFFFFFFFFFFFFFFFFFFFFFFFFFFFFBD
:10540000FFFFFFFFFFFFFFFFFFFFFFFFFFFFFFFFAC
:10541000FFFFFFFFFFFFFFFFFFFFFFFFFFFFFFFF9C
:10542000FFFFFFFFFFFFFFFFFFFFFFFFFFFFFFFF8C
:10543000FFFFFFFFFFFFFFFFFFFFFFFFFFFFFFFF7C
:10544000FFFFFFFFFFFFFFF7FFFFDFFFBFF7FFFFDC
:1054500078E6A669C7E2A7EAC9FA08EBE8EAE8EA4B
:10546000A8FA08E3C8F2C8F2C8F2C8F2C8F2C8F253
:10547000C8F2C8F2C8F2E8EAA8FAC8F2C8EA89FA9B
:10548000EAEA00284BEBC6F288F2E8EAE7F2C8F253
:10549000A8FAA8FAC8F2C8F2C8F2C8F2C8F2C8F26C
:1054A000C8F2A7EA06BAA78979DEBEFFFFFFFFFFB1
:1054B000FFF7DFFFFFFFFFFFFFFFFFFFFFFFFFFF24
:1054C000FFFFFFFFFFFFFFFFFFFFFFFFFFFFFFFFEC
:1054D000FFFFFFFFFFFFFFFFFFFFFFFFFFFFFFFFDC
:1054E000FFFFFFFFFFFFFFFFFFFFFFFFFFFFFFFFCC
:1054F000FFFFFFFFFFFFFFFFFFFFFFFFFFFFFFFFBC
:10550000FFFFFFFFFFFFFFFFFFFFFFFFFFFFFFFFAB
:10551000FFFFFFFFFFFFFFFFFFFFFFFFFFFFFFFF9B
:10552000FFFFFFFFFFFFFFFFFFFFFFFFFFFFFFFF8B
:10553000FFFFFFFFFFFFFFFFFFFFFFFFFFFFFFFF7B
:10554000FFFFFFFFFFFFFFF7FFFFDFFFFFFFFFF79B
:10555000FFFF00184BEBC7F2E7FAE8F2E8EAC7F200
:10556000A8FA08E3C8F2C8F2C8F2C8F2C8F2C8F252
:10557000C8F2C8F2C8F2E8EAA8FAE8EA29F348FA59
:10558000A9EA6071A8C2A7F2A9EAC7FAE7F2C8F2CD
:10559000E8F2A8FAC8F2C8F2C8F2C8F2C8F2C8F233
:1055A000A8EAE8F227CA89BA696AFFFFFFFFFFFF8E
:1055B000FFF7DFFFFFFFFFFFFFFFFFFFFFFFFFFF23
:1055C000FFFFFFFFFFFFFFFFFFFFFFFFFFFFFFFFEB
:1055D000FFFFFFFFFFFFFFFFFFFFFFFFFFFFFFFFDB
:1055E000FFFFFFFFFFFFFFFFFFFFFFFFFFFFFFFFCB
:1055F000FFFFFFFFFFFFFFFFFFFFFFFFFFFFFFFFBB
:10560000FFFFFFFFFFFFFFFFFFFFFFFFFFFFFFFFAA
:10561000FFFFFFFFFFFFFFFFFFFFFFFFFFFFFFFF9A
:10562000FFFFFFFFFFFFFFFFFFFFFFFFFFFFFFFF8A
:10563000FFFFFFFFFFFFFFFFFFFFFFFFFFFFFFFF7A
:10564000FFFFFFFFFFFFFFF7FFFFFFFFFFFFFFF77A
:10565000DFF76D7389BA86F206F3C8F2E8EAA7FAB3
:10566000C7F2E8EAC8F2C8F2C8F2C8F2C8F2C8F253
:10567000C8F2C8F2C8F2C8F2C8FAE8EAE7E267F28C
:10568000C9FA6ADBE170E8EAA9F2A7FAE6F2E8EA09
:10569000E8EAA8FAC8F2C8F2C8F2C8F2C8F2C8F23A
:1056A000C8F2E8F2E5C968C24030DFFFDFFFFFFF64
:1056B000FFFFFFFFFFFFFFFFFFFFFFFFFFFFFFFFFA
:1056C000FFFFFFFFFFFFFFFFFFFFFFFFFFFFFFFFEA
:1056D000FFFFFFFFFFFFFFFFFFFFFFFFFFFFFFFFDA
:1056E000FFFFFFFFFFFFFFFFFFFFFFFFFFFFFFFFCA
:1056F000FFFFFFFFFFFFFFFFFFFFFFFFFFFFFFFFBA
:10570000FFFFFFFFFFFFFFFFFFFFFFFFFFFFFFFFA9
:10571000FFFFFFFFFFFFFFFFFFFFFFFFFFFFFFFF99
:10572000FFFFFFFFFFFFFFFFFFFFFFFFFFFFFFFF89
:10573000FFFFFFFFFFFFFFFFFFFFFFFFFFFFFFFF79
:10574000FFFFFFFFFFFFFFFFFFFFFFFFFFFFFFF771
:10575000FFFFFFFF003009FBA5F2A7F2C8F2C8F275
:10576000E7F2A8FAC8F2C8F2C8F2C8F2C8F2C8F262
:10577000C8F2C8F2C8F2C8F2C8F2E7F2E8EA09F3E0
:10578000A8F2E9F2003829DB88FAA7FAE7F207E382
:10579000E8EAC8F2C8F2C8F2C8F2C8F2C8F2A8F241
:1057A000C8F2C8F2E5C906BA0361DFFFDFFFFFFFF9
:1057B000FFFFFFFFFFFFFFFFFFFFFFFFFFFFFFFFF9
:1057C000FFFFFFFFFFFFFFFFFFFFFFFFFFFFFFFFE9
:1057D000FFFFFFFFFFFFFFFFFFFFFFFFFFFFFFFFD9
:1057E000FFFFFFFFFFFFFFFFFFFFFFFFFFFFFFFFC9
:1057F000FFFFFFFFFFFFFFFFFFFFFFFFFFFFFFFFB9
:10580000FFFFFFFFFFFFFFFFFFFFFFFFFFFFFFFFA8
:10581000FFFFFFFFFFFFFFFFFFFFFFFFFFFFFFFF98
:10582000FFFFFFFFFFFFFFFFFFFFFFFFFFFFFFFF88
:10583000FFFFFFFFFFFFFFFFFFFFFFFFFFFFFFFF78
:10584000FFFFFFFFFFFFFFFFFFFFFFFFFFFFFFFF68
:10585000FFFFFFFFE7490AD387FAA6EAE8FAE8F272
:10586000A7F2A7FAC8F2C8F2C8F2C8F2C8F2C8F2A2
:10587000C8F2C8F2C8F2C8F2C8F2C8F2E8EAE8EA28
:10588000C8F288FA427929BB67FAC7F2C7F227E360
:10589000C8FAC8F2C8F2C8F2C8F2C8F2C8F2C8F230
:1058A000C8F2C8F205CA25BA279AF7BDDFFFFFFF85
:1058B000FFFFFFFFFFFFFFFFFFFFFFFFFFFFFFFFF8
:1058C000FFFFFFFFFFFFFFFFFFFFFFFFFFFFFFFFE8
:1058D000FFFFFFFFFFFFFFFFFFFFFFFFFFFFFFFFD8
:1058E000FFFFFFFFFFFFFFFFFFFFFFFFFFFFFFFFC8
:1058F000FFFFFFFFFFFFFFFFFFFFFFFFFFFFFFFFB8
:10590000FFFFFFFFFFFFFFFFFFFFFFFFFFFFFFFFA7
:10591000FFFFFFFFFFFFFFFFFFFFFFFFFFFFFFFF97
:10592000FFFFFFFFFFFFFFFFFFFFFFFFFFFFFFFF87
:10593000FFFFFFFFFFFFFFFFFFFFFFFFFFFFFFFF77
:10594000FFFFFFFFDFFFFFFFFFFFFFFFFFFFFFFF87
:10595000FFFFFFFF9EE72040A9FAE7FAE7F2A7EA78
:10596000C8FAA7F2C8F2C8F2C8F2C8F2C8F2C8F280
:10597000C8F2C8F2C8F2C8F2C8F2C8F2C8F2E8EA3F
:10598000C8F288FA09CB426967FAC7EAC8FAE6E2C0
:10599000A8FAC7EAC8F2C8F2C8F2C8F2C8F2C8F258
:1059A000C8F2A8F266D224B2A9BA2B63FFFFFFFFA8
:1059B000DFFFFFFFFFFFFFFFFFFFFFFFFFFFFFFF17
:1059C000FFFFFFFFFFFFFFFFFFFFFFFFFFFFFFFFE7
:1059D000FFFFFFFFFFFFFFFFFFFFFFFFFFFFFFFFD7
:1059E000FFFFFFFFFFFFFFFFFFFFFFFFFFFFFFFFC7
:1059F000FFFFFFFFFFFFFFFFFFFFFFFFFFFFFFFFB7
:105A0000FFFFFFFFFFFFFFFFFFFFFFFFFFFFFFFFA6
:105A1000FFFFFFFFFFFFFFFFFFFFFFFFFFFFFFFF96
:105A2000FFFFFFFFFFFFFFFFFFFFFFFFFFFFFFFF86
:105A3000FFFFFFFFFFFFFFFFFFFFFFFFFFFFFFFF76
:105A4000FFFFFFFFDFFFFFFFFFFFFFFFFFFFFFFF86
:105A5000FFFFFFFFFFF7495AABD2A6F2E6EAC9FA09
:105A600088F2C7FAC8F2C8F2C8F2C8F2C8F2C8F29F
:105A7000C8F2C8F2E8EAC8F2C8FAA8FAC8F2C8F24E
:105A8000C8F2A8F24BEB003829FBA8F268FAE7F25B
:105A9000C8FAE7EAC8F2C8F2C8F2C8F2C8F2C8F217
:105AA000C8F2A8F287D285BA68C24431FFFFFFFF6F
:105AB000DFFFFFFFFFFFFFFFFFFFFFFFFFFFFFFF16
:105AC000FFFFFFFFFFFFFFFFFFFFFFFFFFFFFFFFE6
:105AD000FFFFFFFFFFFFFFFFFFFFFFFFFFFFFFFFD6
